:020000040000fa
:080000000002040000000000f2
:020000040000fa
:10040000cf9320000e7b22000e0188000000000028
:100410000c000700009424000100200011000700d8
:10042000000020000000e000020032000000020096
:1004300000000000ac470200000000000040da00ad
:100440000000fe004440a900c03620000000e0008b
:100450000300320000002000a00188004440a800f2
:100460000000060091018800800078000000eb0089
:1004700015003700e280400032a0b4009101ba00bc
:10048000e280400032a0b4009102ba00e280400055
:1004900032a0b4000002eb00472bde00f507b200eb
:1004a000602ce10004003a000059eb008301e900f0
:1004b000fdff3e00040037006128e100010032002a
:1004c0000082eb00040007001101ba000200e00006
:1004d000e8ff3a00000006003159ba008301e90044
:1004e0000c0032002159ba008301e90008003200f3
:1004f0000400e00003003a00e280400032a0b400b3
:10050000f5ff370011d9ba008301e900faff3a007c
:100510008100e800e180400032a0b4000000060045
:100520006022b800060220000000d0008180d200c6
:100530000482d2008582d2000000a0000202520094
:1005400083825a00030031000202420083824a0083
:100550000000a1000603e900f3ff3a0000000600d6
:10056000efff07000400be0000000600839f680044
:100570000100e00002003d0060001000e080180073
:100580000300e00002003d0060011100e08119005d
:10059000e3ff07004f00e00002003b006000100096
:0805a000e080180000000600d5
:020000040000fa
:10000800f2030000f2030000f2030000f203000014
:10001800f2030000f2030000f2030000f203000004
:10002800f2030000f2030000f2030000f2030000f4
:10003800f2030000f2030000f2030000f2030000e4
:10004800f4460000f2030000f2030000f20300008f
:10005800f2030000f2030000f2030000f2030000c4
:10006800f2030000f2030000f2030000f2030000b4
:10007800f2030000f2030000f2030000f2030000a4
:10008800f2030000f2030000f20300000e47000034
:10009800f2030000f203000058470000f2030000da
:1000a800f2030000f2030000f2030000f203000074
:1000b800f2030000f2030000f2030000f203000064
:1000c800f2030000f2030000f2030000f203000054
:1000d800f2030000f2030000f2030000f203000044
:1000e800f2030000f2030000f2030000f203000034
:1000f800f2030000f2030000f2030000f203000024
:10010800f2030000f2030000f2030000f203000013
:10011800f2030000f2030000f2030000f203000003
:10012800f2030000f2030000f2030000f2030000f3
:10013800f2030000f2030000f2030000f2030000e3
:10014800f2030000f2030000f2030000f2030000d3
:10015800f2030000f2030000f2030000f2030000c3
:10016800f2030000f2030000f2030000f2030000b3
:10017800f2030000f2030000f2030000f2030000a3
:10018800f2030000f2030000f2030000f203000093
:10019800f2030000f2030000f2030000f203000083
:1001a800f2030000f2030000f2030000f203000073
:1001b800f2030000f2030000f2030000f203000063
:1001c800f2030000f2030000f2030000f203000053
:1001d800f2030000f2030000f2030000f203000043
:1001e800f2030000f2030000f2030000f203000033
:0801f800f2030000f203000015
:020000040000fa
:10020800f2030000f2030000f2030000f203000012
:10021800f2030000f2030000f2030000f203000002
:10022800f2030000f2030000f2030000f2030000f2
:10023800f2030000f2030000f2030000f2030000e2
:10024800f4460000f2030000f2030000f20300008d
:10025800f2030000f2030000f2030000f2030000c2
:10026800f2030000f2030000f2030000f2030000b2
:10027800f2030000f2030000f2030000f2030000a2
:10028800f2030000f2030000f20300000e47000032
:10029800f2030000f203000058470000f2030000d8
:1002a800f2030000f2030000f2030000f203000072
:1002b800f2030000f2030000f2030000f203000062
:1002c800f2030000f2030000f2030000f203000052
:1002d800f2030000f2030000f2030000f203000042
:1002e800f2030000f2030000f2030000f203000032
:1002f800f2030000f2030000f2030000f203000022
:10030800f2030000f2030000f2030000f203000011
:10031800f2030000f2030000f2030000f203000001
:10032800f2030000f2030000f2030000f2030000f1
:10033800f2030000f2030000f2030000f2030000e1
:10034800f2030000f2030000f2030000f2030000d1
:10035800f2030000f2030000f2030000f2030000c1
:10036800f2030000f2030000f2030000f2030000b1
:10037800f2030000f2030000f2030000f2030000a1
:10038800f2030000f2030000f2030000f203000091
:10039800f2030000f2030000f2030000f203000081
:1003a800f2030000f2030000f2030000f203000071
:1003b800f2030000f2030000f2030000f203000061
:1003c800f2030000f2030000f2030000f203000051
:1003d800f2030000f2030000f2030000f203000041
:1003e800f2030000f2030000f2030000f203000031
:0803f800f2030000f203000013
:020000040000fa
:102000005661000062200000524d000053000000a5
:10201000560000005662000063200000524d000090
:102020005300000056610000205200004d53000094
:102030000056000062200000524d000053000000d6
:1020400056630000205200004d530000004900007c
:1020500061200000524d00005300000041000000cc
:1020600049620000205200004d530000004900006a
:1020700063200000524d000053000000506f00002c
:102080007765000072200000610000006b570000bf
:10209000005000006f7700006572000020620000b1
:1020a000005000006f7700006572000020630000a0
:1020b0000056000061620000204100005647000009
:1020c0000020000000560000626300002041000074
:1020d0005647000000490000612000004156000002
:1020e0004700000049620000204100005647000000
:1020f0000049000063200000415600004700000036
:102100000090000008900000000000000a9000000d
:1021100008900000000000001290000008900000ed
:10212000000000001990000008900000000000006e
:1021300020900000089000000000000027900000a0
:102140002e90000001000000309000002e90000052
:1021500001000000379000002e90000001000000f8
:102160003e900000469000000200000049900000f0
:1021700046900000020000005190000046900000d0
:102180000200000059900000619000000000000073
:102190006390000061900000000000006b90000060
:1021a000619000000000000072900000619000004b
:1021b0000000000079900000619000000000000025
:1021c0005661000062200000636100006c000000a6
:1021d0005662000063200000636100006c00000094
:1021e0004961000020630000616c000000490000ac
:1021f00062200000636100006c0000004963000081
:1022000020630000616c00000043000054200000c7
:10221000536900007a650000002f0000354100007e
:1022200000540000757200006e2000006f66000010
:1022300066200000706f00007765000072000000eb
:1022400054750000726e0000206f00006e200000c8
:10225000706f00007765000072000000436f00009f
:10226000756e00007420000075700000206400008e
:10227000656c00006179000000530000004e000012
:102280006f2e0000206f00006620000052650000e5
:102290006c6100007973000000000000e090000015
:1022a0006190000000000000e890000061900000d4
:1022b00000000000f09000006190000000000000ad
:1022c000f79000006190000000000000fe90000008
:1022d0006190000000000000059100000d910000d9
:1022e0000000000011910000469000000200000074
:1022f0002091000046900000020000002e91000096
:102300003d910000000000003f910000619000003e
:10231000000000004d4c00005420000044720000fa
:102320006976000065730000202d00002045000044
:10233000787000006f720000742000004c6900008b
:102340006d690000746500007220000056000000f6
:102350000d000000466500006220000032350000dc
:10236000203200003031000035000000303900001c
:102370003a320000373a000030310000000d000012
:10238000456e000074650000722000002d6800009a
:10239000202c0000202d0000482000006f7200005b
:1023a000202d00003f200000666f0000722000001a
:1023b000686500006c7000000d0d00000054000006
:1023c00068650000206600006f6c00006c6f000004
:1023d000776900006e670000206300006f6d0000e9
:1023e0006d6100006e6400007320000061720000e7
:1023f00065200000616300006365000070740000e8
:10240000656400003a0d0000002d00006820000007
:102410002f2000002d480000202f0000202d00005c
:102420003f2000003a200000486500006c7000006a
:102430000d0000002d410000532000003a20000054
:10244000536800006f77000073200000616c00008b
:102450006c20000073650000747000006f6900005c
:102460006e74000020760000616c0000756500004d
:10247000730d0000002d000041440000203a0000d0
:1024800020530000686f0000777300002061000097
:102490006c6c00002064000061740000610d00009d
:1024a000002d000041560000203a0000205300009b
:1024b000686f000077730000206100006c6c000002
:1024c000205600006f6c000074610000676500001a
:1024d000730d0000002d000041410000203a000073
:1024e00020530000686f0000777300002061000037
:1024f0006c6c0000206300007572000072650000c3
:102500006e740000730d0000002d000041500000ab
:10251000203a000020530000686f0000777300002d
:10252000206100006c6c0000207000006f770000dc
:1025300065720000730d0000002d0000555300006f
:1025400078200000792000003a200000557000003b
:102550006461000074650000207300006574000071
:10256000706f0000696e0000742000007820000089
:10257000776900007468000020760000616c00003c
:1025800075650000207900000d00000009090000b9
:10259000004300006f6d00006d6100006e6400007c
:1025a00020650000636800006f3a0000202d0000e5
:1025b00055530000004900006e760000616c000079
:1025c000696400002073000065740000706f0000f3
:1025d000696e0000740d0000000000003200000071
:1025e0004d4c00005420000045780000706f000042
:1025f00072740000204c0000696d000069740000d6
:1026000065720000202d0000200000004e6f0000c9
:10261000742000006c6900006d690000746900009e
:102620006e67000020200000202000002000000035
:102630004c6900006d690000746900006e6700005d
:1026400020730000742e00000020000020200000f5
:10265000200000005068000073200000613a000074
:102660002000000056200000004100002000000073
:102670006b570000005000006873000020620000eb
:102680003a20000000500000687300002063000042
:102690003a200000004700006f7400002063000033
:1026a0006d6400002e0d000000000000466c00006c
:1026b00061730000682000007772000069740000f8
:1026c0006520000066610000696c00006564000020
:0826d000210000002d000000b4
:020000040000fa
:1026d8000000e000250032008000eb000000000050
:1026e80000000000000000000000000000000000e2
:1026f80000000000000000000000000000000000d2
:1027080000000000000000000000000000000000c1
:1027180000000000000000000000000000000000b1
:1027280000000000000000000000000000000000a1
:102738000000000000000000000000000000000091
:102748000000000000000000000000000000000081
:102758000000000000000000000000000000000071
:102768008100e800810f5000dcff3a0000000600fd
:10277800000000000000000000000000d742a80090
:102788000000000000000000000000000000000041
:102798000000000000000000d742a900000000006f
:1027a800000000000000000000000600000000001b
:1027b8000000000000000000d722a8000000000070
:1027c8000000000000000000000000000000000001
:1027d80000000000d722a90000000000000000004f
:1027e80000000000000006008081fb000001eb00f3
:1027f8000298de00e1406000e34f51001d00320006
:102808000c003e00e14f51003e0032002b00360024
:10281800c608dd00e9c2bf000064a10001407000e5
:10282800e9e2b7000201e800e80f5100f0ff3a00c2
:1028380000000600e54f510029003200160039005b
:10284800e64f510037003200e74f5100f5ff3a00dc
:10285800c208dd00d0c2bf000024a1000140700002
:10286800d0e2b7000201e800e80f5100e0ff3a00ab
:10287800efff3700c408dd00e9c2bf000044a10033
:1028880001407000e9e2b7000201e800e80f5100da
:10289800d7ff3a00e6ff3700c508dd00e9c2bf00f0
:1028a8000054a10001407000e9e2b7000201e8000d
:1028b800e80f5100ceff3a00ddff370081c040002d
:1028c800e8c2bf000014a10001407000e8e2b700b0
:1028d8000201e800e80f5100c5ff3a00d4ff3700b5
:1028e800c708dd00e9c2bf000074a1000140700004
:1028f800e9e2b7000201e800e80f5100bcff3a0026
:10290800cbff3700e8c2bf000004a10001407000ff
:10291800e8e2b7000201e800e80f5100b4ff3a000e
:10292800c3ff370081c04000d0c2bf000014a1001f
:1029380001407000d0e2b7000201e800e80f510042
:10294800abff3a00baff3700010520000000000085
:10295800000000000000000000000000000000006f
:10296800000000000000000000000000000000005f
:10297800000000000000000000000000000000004f
:10298800000000000000000000000000000000003f
:10299800000000000000000000000000000000002f
:1029a800000000000000000000000000000000001f
:1029b800000000000000000000000000000000000f
:1029c80000000000000000000000000000000000ff
:1029d8008100e900ddff3a008081fb0001017800f9
:1029e8000298de00e1406000e34f51009d00320094
:1029f8008c003e00e14f5100be003200ab003600b3
:102a0800c608dd00e9c2bf000064a10001407000f3
:102a1800e9e2b7000201e800e80f5100f0ff3a00d0
:102a2800000520000000e900000000000000000090
:102a3800000000000000000000000000000000008e
:102a4800000000000000000000000000000000007e
:102a5800000000000000000000000000000000006e
:102a6800000000000000000000000000000000005e
:102a7800000000000000000000000000000000004e
:102a8800000000000000000000000000000000003e
:102a9800000000000000000000000000000000002e
:102aa8000000000000000000000000000000e0003e
:102ab800dcff3a002193200091407800e1cf5000dc
:102ac800a500320093003100000000000000000063
:102ad80000000000d742a80000000000000000002d
:102ae80000000000000000000000000000000000de
:102af800d742a9000000000000000000000000000c
:102b0800000f20000000000000000000000000008e
:102b180000000000000000000000000000000000ad
:102b2800000000000000000000000000000000009d
:102b3800000000000000000000000000000000008d
:102b4800000000000000000000000000000000007d
:102b5800000000000000000000000000000000006d
:102b6800000000000000000000000000000000005d
:102b7800000000000000000000000000000000004d
:102b880000000000000000000000e900ddff3a003e
:102b980040062000000000000000000000000000c7
:102ba800000000000000000000000000000000001d
:102bb800000000000000000000000000000000000d
:102bc80000000000000000000000000000000000fd
:102bd80000000000000000000000000000000000ed
:102be80000000000000000000000000000000000dd
:102bf80000000000000000000000000000000000cd
:102c080000000000000000000000000000000000bc
:102c180000000000000000000000e900ddff3a00ad
:102c280000000600e54f5100290032001600390067
:102c3800e64f51007b003200e74f510075ff3a0024
:102c4800c208dd00d0c2bf000024a100014070000e
:102c5800d0e2b7000201e800e80f510060ff3a0037
:102c68006fff3700c408dd00e9c2bf000044a100bf
:102c780001407000e9e2b7000201e800e80f5100e6
:102c880057ff3a0066ff3700c508dd00e9c2bf00fc
:102c98000054a10001407000e9e2b7000201e80019
:102ca800e80f51004eff3a005dff370081c0400039
:102cb800e8c2bf000014a10001407000e8e2b700bc
:102cc8000201e800e80f510045ff3a0054ff3700c1
:102cd800c708dd00e9c2bf000074a1000140700010
:102ce800e9e2b7000201e800e80f51003cff3a00b2
:102cf8004bff3700e8c2bf000004a100014070008c
:102d0800e8e2b7000201e800e80f510034ff3a009a
:102d180043ff3700000f2000e2cf500079ff3a0050
:102d2800000000000000000000000000d742a800da
:102d3800000000000000000000000000000000008b
:102d48000000000000000000d742a90000000000b9
:102d5800000000000000000000000000000000006b
:102d680000000000d722a8000000000000000000ba
:102d7800000000000000000000000000000000004b
:102d8800d722a90000000000000000000000000099
:102d9800000f2000000000000000000000000000fc
:102da800000000000000000000000000000000001b
:102db800000000000000000000000000000000000b
:102dc80000000000000000000000000000000000fb
:102dd80000000000000000000000000000000000eb
:102de80000000000000000000000000000000000db
:102df80000000000000000000000000000000000cb
:102e080000000000000000000000000000000000ba
:102e180000000000000000000000e90039ff3a004f
:102e28005bff370081c04000d0c2bf000014a10082
:102e380001407000d0e2b7000201e800e80f51003d
:102e4800e7fe3a00f6fe3700210320008100e90082
:102e5800000000000000000000000000000000006a
:102e6800000000000000000000000000000000005a
:102e7800000000000000000000000000000000004a
:102e8800000000000000000000000000000000003a
:102e9800000000000000000000000000000000002a
:102ea800000000000000000000000000000000001a
:102eb800000000000000000000000000000000000a
:102ec80000000000000000000000000000000000fa
:102ed800000000000100e000dcff3a00e822a90041
:102ee8008140e800e7cf50000a003e00e3cf5000e1
:102ef8005c00320052003e00e1cf50009b003200df
:102f0800f6ff3600e9c2a9008140e800e7cf50008b
:102f1800f6ff3600d702a8008081fb000001eb0015
:102f28000298de00e1406000e34f51005f0032008c
:102f38004e003e00e14f510082003200640036002e
:102f4800c608dd00e9c2bf000064a10001407000ae
:102f5800e9e2b7000201e800e80f5100f0ff3a008b
:102f680032c9bf00e14f50009200320081003100a9
:102f7800000000000000000000000000d742a80088
:102f88000000000000000000000000000000000039
:102f98000000000000000000d742a9000000000067
:102fa8000000000000000000d702a9003002200045
:102fb8000000000000000000000000000000000009
:102fc80000000000000000000000000000000000f9
:102fd80000000000000000000000000000000000e9
:102fe80000000000000000000000000000000000d9
:102ff80000000000000000000000000000000000c9
:1030080000000000000000000000000000000000b8
:1030180000000000000000000000000000000000a8
:103028000000000000000000000000000000000098
:10303800000000000000e900ddff3a000000060083
:10304800e5cf50004700320033003900e6cf50008a
:1030580072003200e7cf5000a1ff3a00d042a90029
:103068009fff3700e982a9009dff3700e54f510017
:103078002b0032001f003900e64f51005e0032007d
:10308800e74f5100b3ff3a00c208dd00d0c2bf00cd
:103098000024a10001407000d0e2b7000201e8005e
:1030a800e80f51009eff3a00adff3700c408dd006d
:1030b800e9c2bf000044a10001407000e9e2b70086
:1030c8000201e800e80f510095ff3a00a4ff37001d
:1030d80081c04000e8c2bf000014a1000140700098
:1030e800e8e2b7000201e800e80f51008cff3a005f
:1030f8009bff3700c508dd00e9c2bf000054a100ee
:1031080001407000e9e2b7000201e800e80f510051
:1031180083ff3a0092ff3700e9a2a90070ff370049
:10312800c708dd00e9c2bf000074a10001407000bb
:10313800e9e2b7000201e800e80f510078ff3a0021
:1031480087ff3700e8c2bf000004a10001407000fb
:10315800e8e2b7000201e800e80f510070ff3a000a
:103168007fff3700e9e2a9005dff3700e802a90008
:103178005bff3700e24f50008bff3a000000000071
:103188000000000000000000d742a8000000000076
:103198000000000000000000000000000000000027
:1031a80000000000d742a900000000000000000055
:1031b8000000000000000000000000000000000007
:1031c800d722a80000000000000000000000000056
:1031d800000000000000000000000000d722a90045
:1031e800000000000000000000000000d702a90055
:1031f800300220006eff370081c04000d0c2bf00ff
:103208000014a10001407000d0e2b7000201e800fc
:10321800e80f510042ff3a0051ff3700d022a900c1
:103228002fff3700889fbe008a9fbe008c1f780042
:103238000004780081457800824478000000e000ae
:103248006f00350000c2b300fffe070009c5450046
:10325800e54f5500430036005ac0b3000271220002
:10326800110009000204d80000017800a300200022
:10327800110009000301d800010078000043b000e4
:103288001ee9b7001400200021c0b300ec91200013
:10329800823e2000811f7800110009000204d80036
:1032a80000017800cf007800a3002000811f78007b
:1032b800110009000301d80001007800cf00780050
:1032c8000043b00000727e000182fb008140e800ec
:1032d80042062000811f7800110009000204d8006e
:1032e80000017800cf007800a3002000811f78003b
:1032f800110009000301d80001007800cf00780010
:103308000043b00000727e008182fb000142e800a9
:10331800a2002000110009000204d80081017800f1
:10332800110009000200d8000143b00081727e003c
:103338000480fb000343b00003707e000b04e00030
:1033480022003a00e0c2b300bffe07008acf550052
:103358000e0039004f0678004f05be004f04be002e
:1033680000000600e34f55003a00320028003600fe
:10337800e44f55004b003200e54f5500b7ff3200cf
:103388000b04e000efff3200100037000b44780018
:10339800ec9120008a4478000880fb0060407e00a1
:1033a800a9fe07000844e800894f5400e9ff3200ed
:1033b8000880fb0060407e00a3fe07000844e80088
:1033c800894f5400f4ff3a00e2ff37000044eb0055
:1033d800e9912000394078009bfe07000844e80086
:1033e80088cf5500d7ff32003940780096fe070095
:1033f8000844e80088cf5500f6ff3a00d1ff3700af
:10340800d0c2b30090fe07000804ea008fff37001f
:10341800e24f5500c9ff3a008002eb0014c0b30028
:10342800ec912000a2002000110009000204d8003d
:1034380081017800110009000200d8000143b000a2
:1034480081727e000480fb000343b00003707e009d
:10345800baff37000002eb0011c0b300ec91200066
:1034680042062000811f7800110009000204d800dc
:1034780000017800cf007800a3002000811f7800a9
:10348800110009000301d80001007800cf0078007e
:103498000043b00000727e008182fb000142e80018
:1034a8009bff37000002eb0011c0b300ec91200035
:1034b800823e2000811f7800110009000204d80014
:1034c80000017800cf007800a3002000811f780059
:1034d800110009000301d80001007800cf0078002e
:1034e8000043b00000727e000182fb008140e800ca
:1034f80077ff3700889fbe008a9fbe008c1f780028
:10350800000278008145780002c54000e54f55006b
:10351800430036005ac0b3000271220011000900ae
:103528000282d80000017800a300200011000900e1
:103538000381d800010078000043b0001ee9b700fd
:103548001500200021c0b300ec912000823e20002d
:10355800811f7800110009000282d800000178005c
:10356800cf007800a3002000811f78001100090017
:103578000381d80001007800cf0078000043b00034
:1035880080727e008182fb008140e80042062000b4
:10359800811f7800110009000282d800000178001c
:1035a800cf007800a3002000811f780011000900d7
:1035b8000381d80001007800cf0078000043b000f4
:1035c80080727e000183fb008142e800a200200097
:1035d800110009000282d800810178001100090059
:1035e8000280d8000143b00001737e000580fb0013
:1035f8000343b00003707e000b04e00022003a0091
:10360800e0c2b30010fe07008b4f55000e003e00cd
:103618004f0678004f05be004f04be0000000600ac
:10362800e34f55003600320024003600e44f5500c1
:1036380047003200e54f5500b7ff32000b04e000a9
:10364800efff3200100037000b447800ec912000a7
:103658008a4478000880fb0060407e00fafd07007d
:103668000844e800894f5400e9ff32000880fb0055
:1036780060407e00f4fd07000844e800894f5400cc
:10368800f4ff3a00e2ff37000044eb00e991200024
:1036980039407800ecfd07000844e80088cf550061
:1036a800d7ff320039407800e7fd07000844e800fa
:1036b80088cf5500f6ff3a00d1ff3700e24f55009a
:1036c800cdff3a000003eb0015c0b300ec912000d9
:1036d800a2002000110009000282d80081017800b0
:1036e800110009000280d8000143b00001737e0078
:1036f8000580fb000343b00003707e00beff370067
:103708008002eb0011c0b300ec91200042062000bb
:10371800811f7800110009000282d800000178009a
:10372800cf007800a3002000811f78001100090055
:103738000381d80001007800cf0078000043b00072
:1037480080727e000183fb008142e8009fff370002
:103758008002eb0011c0b300ec912000823e2000f3
:10376800811f7800110009000282d800000178004a
:10377800cf007800a3002000811f78001100090005
:103788000381d80001007800cf0078000043b00022
:1037980080727e008182fb008140e8007bff370059
:1037a800881f780000047800e5cf500009003e002b
:1037b800e3cf50002300320044003600e4cf50002d
:1037c80012003200e5cf5000020032004f047800aa
:1037d8000000060002712200811f78001100090014
:1037e8000284d80000017800cf007800a3002000f0
:1037f800811f7800110009000381d80001007800ba
:10380800cf0078000043b0008ffd0700823e200003
:10381800811f7800110009000284d8000001780097
:10382800cf007800a3002000811f78001100090054
:103838000381d80001007800cf0078000043b00071
:1038480081fd070042062000811f78001100090051
:103858000284d80000017800cf007800a30020007f
:10386800811f7800110009000381d8000100780049
:10387800cf0078000043b00073fd0700a2002000cd
:10388800110009000284d8008000fd001100090021
:103898008280d8008000fd000043b0006afd070068
:1038a800a2002000811f7800110009000284d800be
:1038b80001007800cf0078000043b00062fd0700e7
:1038c8004f04780000000600c2ff3700e1cf500027
:1038d800f3ff3200e2cf5000e8ff32004f047800d7
:1038e80000000600bbff3700889fbe000004be0032
:1038f800ea4f510009003e000280fb000100200051
:1039080061005000e0805800e90f5000e08f580037
:103918005c0036004f04be000000060002a02c0028
:10392800a3b923000800be00fbf20700a200200094
:103938000300200008f307000043b00042fd070021
:1039480002102e00535f20000800be00f2f20700ac
:10395800a200200003002000fff207000043b0008f
:1039680039fd070002682900830920000800be000d
:10397800e9f20700a200200003002000f6f2070089
:103988000043b00030fd070002242400f3002000ab
:103998000800be00e0f20700a2002000030020009b
:1039a800edf207000043b00027fd0700026a280077
:1039b800130020000800be00d7f20700a200200074
:1039c80003002000e4f207000043b0001efd0700da
:1039d80002712200030020000800be00cef207009a
:1039e800a200200003002000dbf207000043b00023
:1039f80015fd0700823e2000030020000800be00dd
:103a0800c5f20700a200200003002000d2f2070040
:103a18000043b0000cfd0700420620000300200010
:103a28000800be00bcf20700a2002000030020002e
:103a3800c9f207000043b00003fd0700a200200000
:103a4800030020000800be00b3f20700a200200017
:103a580003002000c0f207000043b000fafc070092
:103a6800a2002000030020000800be00baf20700f0
:103a78000043b000f4fc07004f04be00000006003d
:103a8800a6ff370000600100f5ff3700ebff3700a5
:103a9800e1ff3700d7ff3700cdff3700c3ff3700fe
:103aa800b9ff3700afff3700a5ff37009bff37008e
:103ab800889fbe008084fb00420620001100090098
:103ac8008284d80000017800a800200011000900b5
:103ad8000881d8000100780002c3b300824f50006b
:103ae8000d003e00110009008884d8008104780088
:103af800110009000880d8000140780082cf5000ea
:103b08000e003e0001c3b30001c04400cefc070014
:103b18004f04be000000060002404000cafc070037
:103b2800110009008884d80081047800800078009a
:103b3800110009008880d8008000fd000043b00013
:103b4800c1fc070001c3b30001c04400befc07006c
:103b58004f04be0000000600efff3700881f780002
:103b680000047800104078000004e00002003a00e9
:103b78004f04780000000600b3fc070058407800a6
:103b88000004e000faff3200affc0700584078005c
:103b98000004e000f8ff3a00f5ff3700889fbe00f8
:103ba8008a1f78000005780001447800e5cf5000ae
:103bb8000100360058c0b3000a00e0005900350083
:103bc80000c2b300a0fc0700e34f54003d003200e0
:103bd80007003600e44f54002c003200e54f540033
:103be8001c0032004f0578004f04be00000006009c
:103bf800e14f54000b003200e24f5400f9ff3a0045
:103c0800a2002000110009000205d8008000fd0074
:103c1800110009008200d8008000fd000043b000b8
:103c280089fc0700a2002000811f7800110009000c
:103c38000205d80001007800cf0078000043b000ea
:103c480081fc07004f0578004f04be000000060005
:103c5800e7ff370002712200811f78001100090078
:103c68000205d80000017800cf007800a3002000ea
:103c7800811f7800110009000301d80001007800b5
:103c8800cf0078000043b0006ffc0700823e2000a0
:103c9800811f7800110009000205d8000001780092
:103ca800cf007800a3002000811f780011000900d0
:103cb8000301d80001007800cf0078000043b0006d
:103cc80061fc070042062000811f780011000900ee
:103cd8000205d80000017800cf007800a30020007a
:103ce800811f7800110009000301d8000100780045
:103cf800cf0078000043b00053fc0700a20020006a
:103d0800110009000205d8008000fd00110009001b
:103d18008200d8008000fd000043b0004afc070084
:103d2800c0ff3700a9362900d0c2b30046fc0700ff
:103d3800594078000004e000fcff3a000a05ea0058
:103d4800a1ff37003269ef0020c0b300fefa070078
:103d5800000f20000000e900000000000000000043
:103d6800000000000000000000000000000000004b
:103d7800000000000000000000000000000000003b
:103d8800000000000000000000000000000000002b
:103d9800000000000000000000000000000000001b
:103da800000000000000000000000000000000000b
:103db80000000000000000000000000000000000fb
:103dc80000000000000000000000000000000000eb
:103dd8000000000000000000000000000000e000fb
:103de800dcff3a00000f20000000e900000000009e
:103df80000000000000000000000000000000000bb
:103e080000000000000000000000000000000000aa
:103e1800000000000000000000000000000000009a
:103e2800000000000000000000000000000000008a
:103e3800000000000000000000000000000000007a
:103e4800000000000000000000000000000000006a
:103e5800000000000000000000000000000000005a
:103e6800000000000000000000000000000000004a
:103e78000000e000dcff3a00000f20000000000016
:103e8800000000000000000000000000000000002a
:103e9800000000000000000000000000000000001a
:103ea800000000000000000000000000000000000a
:103eb80000000000000000000000000000000000fa
:103ec80000000000000000000000000000000000ea
:103ed80000000000000000000000000000000000da
:103ee80000000000000000000000000000000000ca
:103ef80000000000000000000000000000000000ba
:103f08000000e900ddff3a00000006003269ef001a
:103f180000ccb3008cfa0700000f20000000e90075
:103f28000000000000000000000000000000000089
:103f38000000000000000000000000000000000079
:103f48000000000000000000000000000000000069
:103f58000000000000000000000000000000000059
:103f68000000000000000000000000000000000049
:103f78000000000000000000000000000000000039
:103f88000000000000000000000000000000000029
:103f98000000000000000000000000000000000019
:103fa800000000000000e000dcff3a00000006000e
:103fb80010c0b30032e9b70020c0b30062fa0700ae
:103fc800000f20000000e9000000000000000000d1
:103fd80000000000000000000000000000000000d9
:103fe80000000000000000000000000000000000c9
:103ff80000000000000000000000000000000000b9
:1040080000000000000000000000000000000000a8
:104018000000000000000000000000000000000098
:104028000000000000000000000000000000000088
:104038000000000000000000000000000000000078
:104048000000000000000000000000000000e00088
:10405800dcff3a00000f20000000e900000000002b
:104068000000000000000000000000000000000048
:104078000000000000000000000000000000000038
:104088000000000000000000000000000000000028
:104098000000000000000000000000000000000018
:1040a8000000000000000000000000000000000008
:1040b80000000000000000000000000000000000f8
:1040c80000000000000000000000000000000000e8
:1040d80000000000000000000000000000000000d8
:1040e8000000e000dcff3a00000f200000000000a4
:1040f80000000000000000000000000000000000b8
:1041080000000000000000000000000000000000a7
:104118000000000000000000000000000000000097
:104128000000000000000000000000000000000087
:104138000000000000000000000000000000000077
:104148000000000000000000000000000000000067
:104158000000000000000000000000000000000057
:104168000000000000000000000000000000000047
:104178000000e900ddff3a000000060010c0b300af
:1041880032e9b70000ccb300eff90700000f2000b8
:104198000000e9000000000000000000000000002e
:1041a8000000000000000000000000000000000007
:1041b80000000000000000000000000000000000f7
:1041c80000000000000000000000000000000000e7
:1041d80000000000000000000000000000000000d7
:1041e80000000000000000000000000000000000c7
:1041f80000000000000000000000000000000000b7
:1042080000000000000000000000000000000000a6
:1042180000000000000000000000e000dcff3a00a1
:1042280000000600d702a900d742a900d722a9009a
:10423800d302a900d342a900d322a900e422a900ed
:10424800e402a900e5c2a900e582a900e5a2a90047
:10425800e5e2a900cc22a900cc42a900000f200069
:104268000000000000000000000000000000000046
:104278000000000000000000000000000000000036
:104288000000000000000000000000000000000026
:104298000000000000000000000000000000000016
:1042a8000000000000000000000000000000000006
:1042b80000000000000000000000000000000000f6
:1042c80000000000000000000000000000000000e6
:1042d80000000000000000000000000000000000d6
:1042e800000000000000e900ddff3a00000f200098
:1042f80000000000000000000000000000000000b6
:1043080000000000000000000000000000000000a5
:104318000000000000000000000000000000000095
:104328000000000000000000000000000000000085
:104338000000000000000000000000000000000075
:104348000000000000000000000000000000000065
:104358000000000000000000000000000000000055
:104368000000000000000000000000000000000045
:10437800000000000000e900ddff3a00000f200007
:104388000000000000000000000000000000000025
:104398000000000000000000000000000000000015
:1043a8000000000000000000000000000000000005
:1043b80000000000000000000000000000000000f5
:1043c80000000000000000000000000000000000e5
:1043d80000000000000000000000000000000000d5
:1043e80000000000000000000000000000000000c5
:1043f80000000000000000000000000000000000b5
:10440800000000000000e900ddff3a00000178002c
:10441800f00320000280de00e1406000e34f51001d
:104428001d0332000c033e00e14f51006b033200c4
:1044380058033600c608dd00e9c2bf000064a100c9
:1044480001407000e9e2b7000201e800e80f5100fe
:10445800efff3a000000000000000000000000002c
:10446800d742a80000000000000000000000000083
:10447800000000000000000000000000d742a90072
:104488000000000000000000000000000000000024
:104498000000000000000000d722a8000000000073
:1044a8000000000000000000000000000000000004
:1044b80000000000d722a900000000000000000052
:1044c80000000000000f20000000e90000000000cc
:1044d80000000000000000000000000000000000d4
:1044e80000000000000000000000000000000000c4
:1044f80000000000000000000000000000000000b4
:1045080000000000000000000000000000000000a3
:104518000000000000000000000000000000000093
:104528000000000000000000000000000000000083
:104538000000000000000000000000000000000073
:104548000000000000000000000000000000000063
:104558000000e000dcff3a00000f20000000e90046
:104568000000000000000000000000000000000043
:104578000000000000000000000000000000000033
:104588000000000000000000000000000000000023
:104598000000000000000000000000000000000013
:1045a8000000000000000000000000000000000003
:1045b80000000000000000000000000000000000f3
:1045c80000000000000000000000000000000000e3
:1045d80000000000000000000000000000000000d3
:1045e800000000000000e000dcff3a00000f20009f
:1045f8000000e900000000000000000000000000ca
:1046080000000000000000000000000000000000a2
:104618000000000000000000000000000000000092
:104628000000000000000000000000000000000082
:104638000000000000000000000000000000000072
:104648000000000000000000000000000000000062
:104658000000000000000000000000000000000052
:104668000000000000000000000000000000000042
:1046780000000000000000000000e000dcff3a003d
:1046880000017800f00320000280de00e1406000b5
:10469800e34f5100920232005f023e00e14f5100a9
:1046a800df023200a9023600c608dd00e9c2bf00f9
:1046b8000064a10001407000e9e2b7000201e800cf
:1046c800e80f5100efff3a00000000000000000072
:1046d80000000000d742a800000000000000000011
:1046e80000000000000000000000000000000000c2
:1046f800d742a900000000000000000000000000f0
:10470800000000000000000000000000d722a80000
:104718000000000000000000000000000000000091
:104728000000000000000000d722a90000000000df
:104738000000000000000000000f20000000e90059
:104748000000000000000000000000000000000061
:104758000000000000000000000000000000000051
:104768000000000000000000000000000000000041
:104778000000000000000000000000000000000031
:104788000000000000000000000000000000000021
:104798000000000000000000000000000000000011
:1047a8000000000000000000000000000000000001
:1047b80000000000000000000000000000000000f1
:1047c800000000000000e000dcff3a000001780073
:1047d800f00320000280de00e1406000e34f51005a
:1047e80036023200fc013e00e14f5100a6023200c1
:1047f8004d023600c608dd00e9c2bf000064a10012
:1048080001407000e9e2b7000201e800e80f51003a
:10481800efff3a0000000000000000000000000068
:10482800d742a800000000000000000000000000bf
:10483800000000000000000000000000d742a900ae
:104848000000000000000000000000000000000060
:104858000000000000000000d722a80000000000af
:104868000000000000000000000000000000000040
:1048780000000000d722a90000000000000000008e
:1048880000000000000f20000000e9000000000008
:104898000000000000000000000000000000000010
:1048a8000000000000000000000000000000000000
:1048b80000000000000000000000000000000000f0
:1048c80000000000000000000000000000000000e0
:1048d80000000000000000000000000000000000d0
:1048e80000000000000000000000000000000000c0
:1048f80000000000000000000000000000000000b0
:10490800000000000000000000000000000000009f
:104918000000e000dcff3a0032e9b70080c3b300d2
:1049280009f80700000f20000000e900000000005f
:10493800000000000000000000000000000000006f
:10494800000000000000000000000000000000005f
:10495800000000000000000000000000000000004f
:10496800000000000000000000000000000000003f
:10497800000000000000000000000000000000002f
:10498800000000000000000000000000000000001f
:10499800000000000000000000000000000000000f
:1049a80000000000000000000000000000000000ff
:1049b8000000e000dcff3a0010c0b30032e9b700a5
:1049c80080c3b300e0f70700000f200000000000dc
:1049d80000000000000000000000000000000000cf
:1049e80000000000000000000000000000000000bf
:1049f80000000000000000000000000000000000af
:104a0800000000000000000000000000000000009e
:104a1800000000000000000000000000000000008e
:104a2800000000000000000000000000000000007e
:104a3800000000000000000000000000000000006e
:104a4800000000000000000000000000000000005e
:104a58000000e900ddff3a0032e9b700c0c0b3004a
:104a6800b9f70700000f2000000000000000000058
:104a7800000000000000000000000000000000002e
:104a8800000000000000000000000000000000001e
:104a9800000000000000000000000000000000000e
:104aa80000000000000000000000000000000000fe
:104ab80000000000000000000000000000000000ee
:104ac80000000000000000000000000000000000de
:104ad80000000000000000000000000000000000ce
:104ae8000000000000000000000000000000e900d5
:104af800ddff3a0010c0b30032e9b700c0c0b30010
:104b080091f70700000f20000000000000000000df
:104b1800000000000000000000000000000000008d
:104b2800000000000000000000000000000000007d
:104b3800000000000000000000000000000000006d
:104b4800000000000000000000000000000000005d
:104b5800000000000000000000000000000000004d
:104b6800000000000000000000000000000000003d
:104b7800000000000000000000000000000000002d
:104b88000000000000000000000000000000e90034
:104b9800ddff3a0032e9b70010c0b3006af707003a
:104ba800000f2000000000000000000000000000ce
:104bb80000000000000000000000000000000000ed
:104bc80000000000000000000000000000000000dd
:104bd80000000000000000000000000000000000cd
:104be80000000000000000000000000000000000bd
:104bf80000000000000000000000000000000000ad
:104c0800000000000000000000000000000000009c
:104c1800000000000000000000000000000000008c
:104c280000000000000000000000e900ddff3a007d
:104c380010c0b30032e9b70043f70700000f2000a7
:104c4800000000000000000000000000000000005c
:104c5800000000000000000000000000000000004c
:104c6800000000000000000000000000000000003c
:104c7800000000000000000000000000000000002c
:104c8800000000000000000000000000000000001c
:104c9800000000000000000000000000000000000c
:104ca80000000000000000000000000000000000fc
:104cb80000000000000000000000000000000000ec
:104cc800000000000000e900ddff3a0032e9b7000b
:104cd80060c0b3001cf70700000f200000000000b0
:104ce80000000000000000000000000000000000bc
:104cf80000000000000000000000000000000000ac
:104d0800000000000000000000000000000000009b
:104d1800000000000000000000000000000000008b
:104d2800000000000000000000000000000000007b
:104d3800000000000000000000000000000000006b
:104d4800000000000000000000000000000000005b
:104d5800000000000000000000000000000000004b
:104d68000000e900ddff3a0010c0b30032e9b700e7
:104d780060c0b300f4f60700000f20000000000038
:104d8800000000000000000000000000000000001b
:104d9800000000000000000000000000000000000b
:104da80000000000000000000000000000000000fb
:104db80000000000000000000000000000000000eb
:104dc80000000000000000000000000000000000db
:104dd80000000000000000000000000000000000cb
:104de80000000000000000000000000000000000bb
:104df80000000000000000000000000000000000ab
:104e08000000e900ddff3a0032e9b70000c8b3004e
:104e1800cdf60700000f2000000000000000000091
:104e2800000000000000000000000000000000007a
:104e3800000000000000000000000000000000006a
:104e4800000000000000000000000000000000005a
:104e5800000000000000000000000000000000004a
:104e6800000000000000000000000000000000003a
:104e7800000000000000000000000000000000002a
:104e8800000000000000000000000000000000001a
:104e98000000000000000000000000000000e90021
:104ea800ddff3a0010c0b30032e9b70000c8b30014
:104eb800a5f60700000f2000000000000000000019
:104ec80000000000000000000000000000000000da
:104ed80000000000000000000000000000000000ca
:104ee80000000000000000000000000000000000ba
:104ef80000000000000000000000000000000000aa
:104f08000000000000000000000000000000000099
:104f18000000000000000000000000000000000089
:104f28000000000000000000000000000000000079
:104f38000000000000000000000000000000e90080
:104f4800ddff3a00000f2000000000000000000014
:104f58000000000000000000000000000000000049
:104f68000000000000000000000000000000000039
:104f78000000000000000000000000000000000029
:104f88000000000000000000000000000000000019
:104f98000000000000000000000000000000000009
:104fa80000000000000000000000000000000000f9
:104fb80000000000000000000000000000000000e9
:104fc8000000000000000000000000000000e900f0
:104fd800ddff3a0000000600e54f5100980032005e
:104fe80063003900e64f5100af003200e74f51002f
:104ff80005fe3a00c208dd00d0c2bf000024a100af
:1050080001407000d0e2b7000201e800e80f51004b
:10501800effd3a00fffd3700e54f51007700320001
:1050280065003900e64f5100b1003200e74f5100ea
:10503800a2fd3a00c208dd00d0c2bf000024a100d2
:1050480001407000d0e2b7000201e800e80f51000b
:105058008cfd3a009cfd3700e54f5100810032007d
:1050680028003900e64f510098003200e74f510000
:10507800f5fc3a00c208dd00d0c2bf000024a10040
:1050880001407000d0e2b7000201e800e80f5100cb
:10509800dffc3a00effc3700c408dd00e9c2bf00be
:1050a8000044a10001407000e9e2b7000201e800f5
:1050b800e80f5100d6fc3a00e6fc3700c408dd00d2
:1050c800e9c2bf000044a10001407000e9e2b70056
:1050d8000201e800e80f5100bdfd3a00cdfd3700a0
:1050e800c408dd00e9c2bf000044a100014070000f
:1050f800e9e2b7000201e800e80f510061fd3a005b
:1051080071fd3700c508dd00e9c2bf000054a100e9
:1051180001407000e9e2b7000201e800e80f510021
:10512800bbfc3a00cbfc370081c04000e8c2bf009e
:105138000014a10001407000e8e2b7000201e80095
:10514800e80f5100a2fd3a00b2fd370081c04000cf
:10515800e8c2bf000014a10001407000e8e2b700f7
:105168000201e800e80f510046fd3a0056fd3700fd
:10517800c508dd00e9c2bf000054a100014070006d
:10518800e9e2b7000201e800e80f510090fd3a009b
:10519800a0fd370081c04000e8c2bf000014a10094
:1051a80001407000e8e2b7000201e800e80f510092
:1051b80097fc3a00a7fc3700c508dd00e9c2bf002c
:1051c8000054a10001407000e9e2b7000201e800c4
:1051d800e80f51002bfd3a003bfd3700e8c2bf0045
:1051e8000004a10001407000e8e2b7000201e800f5
:1051f800e80f510086fc3a0096fc3700c708dd002e
:10520800e9c2bf000074a10001407000e9e2b700e4
:105218000201e800e80f51001afd3a002afd3700a4
:10522800e8c2bf000004a10001407000e8e2b70036
:105238000201e800e80f510012fd3a0022fd370094
:10524800c708dd00e9c2bf000074a100014070007a
:10525800e9e2b7000201e800e80f51005cfd3a00fe
:105268006cfd3700c708dd00e9c2bf000074a1006b
:1052780001407000e9e2b7000201e800e80f5100c0
:1052880063fc3a0073fc3700e8c2bf000004a100c9
:1052980001407000e8e2b7000201e800e80f5100a1
:1052a8004bfd3a005bfd370081c04000d0c2bf0013
:1052b8000014a10001407000d0e2b7000201e8002c
:1052c800e80f510042fd3a0052fd370081c040000e
:1052d800d0c2bf000014a10001407000d0e2b700a6
:1052e8000201e800e80f510049fc3a0059fc370078
:1052f80081c04000d0c2bf000014a100014070006e
:10530800d0e2b7000201e800e80f5100ddfc3a00e6
:10531800edfc370021c3bf00c2cfb30002406000dc
:1053280021e3b70001ceb300014078002063b70045
:105338002043a8002143a8002063a9002223a90034
:105348002343a80023c3bf000240600023e3b70043
:1053580025e3a90060c0b30024e3b70028c3bf0059
:105368000140600028e3b70028e3a9002603a9004c
:1053780026c3bf0091cfb3000140600026e3b70009
:105388002e23ef003003a8003023a8003043a800e4
:105398003063a8003083a80030a3a800bcc3bf00b6
:1053a800f1ccb30001406000bce3b700bcc3bf0050
:1053b80002406000bce3b70000302000201e8800d7
:1053c80070012000301e8800d0002000f01d8800e9
:1053d800007c2000001e88008ba0a9009ba0a900cb
:1053e800bde3a8002183a90022c3bf00ecc0500080
:1053f800014060004041b30022e3b70032c3bf0060
:1054080081cfb300014060003040b30032e3b70001
:1054180085a0a90095a0a90021e3a8000000060026
:105428008f02b000889fbe008a9fbe008c9fbe007e
:105438008e1f78003d48ec00c0ef9f003de8b700a4
:10544800017c2200c07c22009100780090844000fa
:10545800807d220090844400407e22009084440095
:10546800c2ccde006149b90040448000514480004c
:105478000201400083814800c2b79f00d3b79f0054
:105488004244880053448800217c2200e07c2200aa
:105498009100780010834000a07d22001003430093
:1054a800607e22001003430042b3de006131b90080
:1054b80080448000914480000201400083814800bc
:1054c800a2b79f00b3b79f00824488009344880026
:1054d800417c2200007d2200910078001084400069
:1054e800c07d220010044400807e22001004440085
:1054f80042c4de006141b90020448000314480008c
:10550800020140008381480082b79f0093b79f0043
:105518002244880033448800817c2200407d220098
:105528009100780090824000007e22009082420024
:10553800c07e220090824200c2aade006129b90022
:10554800604480007144800002014000838148006b
:10555800e2af9f00f3af9f00624488007344880065
:10556800a17c2200607d220091007800108240001a
:10557800207e220010024200e07e2200100242003b
:1055880042a2de006121b90000448000114480007d
:105598000201400083814800c2af9f00d3af9f0043
:1055a800024488001344880085a0a900d0478000e1
:1055b80000035300f6438800e0478000008552004e
:1055c800ea438800f04780008084540099438800ab
:1055d80000488000000654008c4388001048800072
:1055e800000752007e438800cfb3de0020488000c9
:1055f800cf80de000602b80001b1b9000501410004
:105608000780b900800241000400be00e00f52008c
:10561800e08f5a00a20135004609dd004a00de008d
:1056280000007100ca88de00b0af9f00f043880018
:105638006153b90030488000cf80de000602b80010
:1056480001b1b900050141000780b900800241009d
:105658000400be00e00f5200e08f5a00b60135008a
:10566800460add004a00de0000007200ca88de003b
:10567800e0a79f00e0438800614ab90040488000e5
:10568800cf80de000403b80001a1b9000701410082
:105698000580b900800341000a4280000b00200009
:1056a8000a30b80007d1b900810041000280220009
:1056b80003002000abeb07008006780090438800c9
:1056c8006163b90050488000cf80de000602b80050
:1056d80001b1b900050141000780b900800241000d
:1056e8000450b80005d1b900828040000280220031
:1056f800030020009beb0700000678008043880029
:105708006173b90060488000cf80de000602b800ef
:1057180001b1b900050141000780b90080024100cc
:105728000454b80005d5b9008a84440002802200d8
:10573800030020000800be008aeb070070438800c1
:105748003fab9700efa39700870143008301ea006e
:10575800d3438800030153003400200080027800fe
:10576800110009000401d8008002fd00f5b79f0070
:10577800c543880006815300000378001100090022
:105788000401d8000003fd0086bf9f00b6438800cf
:105798008781510000077800110009008401d800b2
:1057a8000007fd00ae438800612db9006169b900aa
:1057b80092af9f00a3af9f000a13b8002faa9700cb
:1057c80004d1b900070141009fa997000b9ab900bd
:1057d800840341000247800013478000060141000e
:1057e8008781490002478800134788000fba97004d
:1057f8006124b9006163b900f6a79f0087af9f00d5
:105808007fa197000813b8000faa970004c1b90038
:1058180007014100ffa19700099ab90084034100dc
:10582800e2468000f3468000060141008781490076
:10583800e2468800f34688006173b9006106b90042
:105848000662b8000db0b9000500400007e1b900d4
:1058580082024000c0468000d1468000040040001b
:1058680085804800c0468800d14688006808e20064
:10587800200135003e68ec004c28ec003869ef0048
:105888006608e2002f0235004a28ec003769ef006d
:105898006408e200240235004828ec003669ef006d
:1058a8006c08e200180235005028ec003569ef005a
:1058b8006a08e200a80135004e28ec003469ef00c0
:1058c8007fb19700424388008fb99700334388001f
:1058d8002e4388003faa970064438800efa29700f0
:1058e800554388006120b9000001b8000180b90063
:1058f8000000400083014000804580009145800001
:10590800020240008382480084458800954588004b
:105918006fa197006110b9000001b8000180b900bb
:105928000000400083014000604580007145800010
:105938000200400083804800604588007145880067
:105948000a51b8000bd0b9000000400083014000a4
:105958004045800051458000020040008380480097
:1059680040458800514588000841b80009c0b90081
:105978000000400083014000204580003145800040
:105988000200400083804800204588003145880097
:105998000631b80007b0b90000004000830140009c
:1059a80000458000114580000200400083804800c7
:1059b80000458800114588001fab97000631b800e4
:1059c800860378002fab970006b8b90000004000a6
:1059d80083014000e0448000f14480000200400060
:1059e80083804800e0448800f1448800ffa39700c2
:1059f8000739b800070378008fab970007b0b900e4
:105a08000000400083014000c0448000d144800071
:105a18000200400083804800c0448800d1448800c8
:105a28000c61b8000de0b90000004000830140009f
:105a3800a0448000b14480000200400083804800f8
:105a4800a0448800b144880000c8b300cfe897009c
:105a580080cf50001a0032005093200017c0b300c6
:105a680090cf1300bf0132004093200011c0b30053
:105a780090cf1000950232008093200012c0b3002e
:105a8800904f1100c80132007093200017c0b30076
:105a980090cf1300280232006093200017c0b30093
:105aa80090cf1300390032004f0778004f06be0030
:105ab8004f05be004f04be008f02b1000000060073
:105ac8003d68ef002fb19700bfb19700491bdd007b
:105ad8004710de0000007300c718de00d0478800ba
:105ae8009028ef009228ef006fa99700ffa9970070
:105af800491bdd004710de0000007300c718de00f8
:105b0800e04788008c28ef008e28ef004fb19700ff
:105b1800dfb19700491bdd004710de00000073006d
:105b2800c718de00f04788008828ef008a28ef00b1
:105b38000fb197009fb19700491bdd004710de00a9
:105b480000007300c718de00004888008428ef00b2
:105b58008628ef004fa99700dfa99700491bdd00b1
:105b68004710de0000007300c718de0010488800e8
:105b78008028ef008228ef005093200017c0b30060
:105b880090cf1300b8ff3a00760137003669ef006e
:105b9800404280006104b8000801be00c046800091
:105ba800d14680006fea070042062000030020006b
:105bb8006cea0700c0478800d828ef00da28ef0011
:105bc8000801be00004580001145800052ea070028
:105bd8000045880011458800b5ea0700604788003d
:105be800a028ef00a228ef00424280000300200016
:105bf800a0448000b144800047ea0700a044880020
:105c0800b1448800aaea0700904788009428ef006a
:105c18009628ef0062478000cf91de00644680003e
:105c2800754680000202420083824a00644688006a
:105c380075468800cf80de0002468000134680004b
:105c48000003410081834900064688001746880002
:105c5800c0478000cf80de00a2458000b3458000a9
:105c68000001410081814900a2458800b3458800b0
:105c78004208ec0010428800ff0f500025023e0049
:105c88004828ef004f0778004f06be004f05be00ba
:105c98004f04be008f02b1000000060088ff3700e5
:105ca800f03fb0000180b0004609dd004a00de0088
:105cb80000007100ca88de00b0af9f00f043880082
:105cc8006153b90030488000cf80de000602b8007a
:105cd80001b1b900050141000780b9008002410007
:105ce8000400be00e00f5200e08f5a005cfe3d0049
:105cf800110037007fb297000400e000ddfe350098
:105d0800e1832000914078000104e000250235007d
:105d1800e0c7b30080cf500001003e000e21ed0027
:105d28003e68ef0010c0b30038e9b7006608e2002b
:105d3800d5fe3d0003013700f03fb0000180b00000
:105d4800460add004a00de0000007200ca88de0054
:105d5800e0a79f00e0438800614ab90040488000fe
:105d6800cf80de000403b80001a1b900070141009b
:105d78000580b900800341000a4280000b00200022
:105d88000a30b80007d1b900810041000280220022
:105d980003002000f3e9070080067800904388009c
:105da8006163b90050488000cf80de000602b80069
:105db80001b1b900050141000780b9008002410026
:105dc8000450b80005d1b90082804000028022004a
:105dd80003002000e3e907000006780080438800fc
:105de8006173b90060488000cf80de000602b80009
:105df80001b1b900050141000780b90080024100e6
:105e08000454b80005d5b9008a84440002802200f1
:105e1800030020000800be00d2e907007043880094
:105e28003fab9700efa39700870143008301ea0087
:105e3800d343880003015300340020008002780017
:105e4800110009000401d8008002fd00f5b79f0089
:105e5800c54388000681530000037800110009003b
:105e68000401d8000003fd0086bf9f00b6438800e8
:105e78008781510000077800110009008401d800cb
:105e88000007fd00ae438800612db9006169b900c3
:105e980092af9f00a3af9f000a13b8002faa9700e4
:105ea80004d1b900070141009fa997000b9ab900d6
:105eb8008403410002478000134780000601410027
:105ec8008781490002478800134788000fba970066
:105ed8006124b9006163b900f6a79f0087af9f00ee
:105ee8007fa197000813b8000faa970004c1b90052
:105ef80007014100ffa19700099ab90084034100f6
:105f0800e2468000f346800006014100878149008f
:105f1800e2468800f34688006173b9006106b9005b
:105f28000662b8000db0b9000500400007e1b900ed
:105f380082024000c0468000d14680000400400034
:105f480085804800c0468800d14688006808e2007d
:105f580048fe3d0067ff3700efa097000100e00012
:105f680055fe350010c0b30034e9b7007fb1970083
:105f7800424388008fb99700334388002e43880036
:105f88003faa970064438800efa297005543880012
:105f98006120b9000001b8000180b900000040008c
:105fa8008301400080458000914580000202400046
:105fb8008382480084458800954588006fa1970032
:105fc8006110b9000001b8000180b900000040006c
:105fd8008301400060458000714580000200400058
:105fe8008380480060458800714588000a51b800e0
:105ff8000bd0b900000040008301400040458000fc
:1060080051458000020040008380480040458800d8
:10601800514588000841b80009c0b9000000400097
:106028008301400020458000314580000200400087
:106038008380480020458800314588000631b80033
:1060480007b0b9000000400083014000004580000f
:106058001145800002004000838048000045880008
:10606800114588001fab97000631b80086037800f9
:106078002fab970006b8b90000004000830140002c
:10608800e0448000f1448000020040008380480022
:10609800e0448800f1448800ffa397000739b8005e
:1060a800070378008fab970007b0b90000004000e5
:1060b80083014000c0448000d144800002004000b9
:1060c80083804800c0448800d14488000c61b8002f
:1060d8000de0b9000000400083014000a0448000aa
:1060e800b14480000200400083804800a04488003a
:1060f800b144880000c8b300cfe8970080cf5000b3
:1061080055fe3a006efe37003fa897000000e000f9
:10611800e5fd350010c0b30035e9b7006a08e200b4
:10612800e5fd3d008cff37000e00e000dafd35008c
:1061380010c0b30036e9b7006c08e200dafd3d0094
:10614800f1ff37008fba97000500e000cefd35005b
:1061580010c0b30037e9b7006408e200cefd3d0087
:10616800f1ff37003569ef0082428000030020000c
:106178000400be00e8e807008045880091458800d3
:106188004be9070020478800b028ef00b228ef004d
:106198005028ef004093200011c0b30090cf1000aa
:1061a80035fe3a00c90037003869ef0060428000c8
:1061b8006104b8000801be00004780001147800054
:1061c800e8e807004206200003002000e5e8070091
:1061d800a0478800e028ef00e228ef000801be0091
:1061e8004045800051458000cbe8070040458800c5
:1061f800514588002ee9070040478800a828ef008d
:10620800aa28ef006242800003002000e0448000da
:10621800f1448000c0e80700e0448800f1448800a9
:1062280023e90700704788009c28ef009e28ef00ac
:1062380042478000cf91de00a4468000b54680002a
:106248000202420083824a00a4468800b5468800bc
:10625800cf80de00424680005346800000034100a4
:10626800818349004646880057468800a047800039
:10627800cf80de00e2458000f34580000001410048
:1062880081814900e2458800f34588004608ec0012
:1062980030428800ff0f5000220036000400be0084
:1062a800e00f5200e08f5a00f30035004b0add0082
:1062b8004500de0000007200c588de00104388003b
:1062c8000600be00e00f5300e08f5b0005013500bb
:1062d800cb0add004500de0000807200c588de00c4
:1062e800e04288000200be00e00f5100e08f590034
:1062f800140135004b0bdd004500de000000730083
:10630800c588de00b04288004628ef00d428ef0098
:10631800d628ef00c828ef00ca28ef00bc28ef00f5
:10632800be28ef004c28ef007093200017c0b30080
:1063380090cf1300d8fd3a003769ef005042800033
:106348006104b8000801be00e0468000f146800004
:1063580084e80700420620000300200081e80700c7
:10636800b0478800dc28ef00de28ef000801be00f7
:10637800204580003145800067e8070020458800f7
:1063880031458800cae8070050478800a428ef0074
:10639800a628ef005242800003002000c04480007d
:1063a800d14480005ce80700c0448800d1448800dc
:1063b800bfe80700804788009828ef009a28ef0078
:1063c80052478000cf91de008446800095468000c9
:1063d8000202420083824a0084468800954688006b
:1063e800cf80de0022468000334680000003410053
:1063f800818349002646880037468800b0478000d8
:10640800cf80de00c2458000d345800000014100f6
:1064180081814900c2458800d34588004408ec00c2
:1064280020428800ff0f5000220036000400be0002
:10643800e00f5200e08f5a00830035004b0add0060
:106448004500de0000007200c588de0000438800b9
:106458000600be00e00f5300e08f5b00ad00350082
:10646800cb0add004500de0000807200c588de0032
:10647800d04288000200be00e00f5100e08f5900b2
:10648800890035004b0bdd004500de00000073007d
:10649800c588de00a04288004428ef00d028ef001d
:1064a800d228ef00c428ef00c628ef00b828ef0074
:1064b800ba28ef004a28ef006093200017c0b30005
:1064c80090cf130078fd3a00b0fd37003469ef0033
:1064d8007242800003002000604580007145800002
:1064e8000de80700604588007145880070e80700de
:1064f80030478800ac28ef00ae28ef004e28ef00a8
:106508008093200012c0b300904f11005efd3a0046
:1065180025ff37000400be00e00f5200e08f5a004c
:106528003d0035004b0add004500de00000072002a
:10653800c588de00f04288000600be00e00f530068
:10654800e08f5b0028003500cb0add004500de0047
:1065580000807200c588de00c04288000200be00cc
:10656800e00f5100e08f5900100035004b0bdd00a3
:106578004500de0000007300c588de0090428800f8
:106588004228ef00cc28ef00ce28ef00c028ef000b
:10659800c228ef00b428ef00b628ef004828ef0023
:1065a800b8fd37000e21ec00d9fd37007f0041000f
:1065b800e08049004b0bdd004500de000000730061
:1065c800c588de00904288004228ef00cc28ef0002
:1065d800ce28ef00c028ef00c228ef00b428ef0053
:1065e800b628ef00edff37007f004300e0804b0046
:1065f800cb0add004500de0000807200c588de00a1
:10660800c04288000200be00e00f5100e08f590030
:10661800d6ff3d00e5ff37007f004200e0804a00da
:106628004b0add004500de0000007200c588de0070
:10663800f04288000600be00e00f5300e08f5b00c8
:10664800c1ff3d00e8ff37007f004200e0804a00bc
:106658004b0add004500de0000007200c588de0040
:10666800004388000600be00e00f5300e08f5b0087
:106678007bff3d00270037007f004200e0804a0092
:106688004b0add004500de0000007200c588de0010
:10669800104388000600be00e00f5300e08f5b0047
:1066a8000bff3d000f0037007f004100e0804900ec
:1066b8004b0bdd004500de0000007300c588de00de
:1066c800a04288004428ef00d028ef00d228ef002d
:1066d800c428ef00c628ef00b828ef00ba28ef005a
:1066e80074ff37007f004300e0804b00cb0add00d9
:1066f8004500de0000807200c588de00e0428800a8
:106708000200be00e00f5100e08f5900f9fe3d0085
:106718000c0037007f004300e0804b00cb0add000f
:106728004500de0000807200c588de00d042880087
:106738000200be00e00f5100e08f590051ff3d00fc
:10674800d9ff37007f004100e08049004b0bdd0096
:106758004500de0000007300c588de00b0428800f6
:106768004628ef00d428ef00d628ef00c828ef000d
:10677800ca28ef00bc28ef00be28ef00e9fe37006a
:10678800881f780028042000184478000884fb003b
:106798004544de0091028000ff3ffc0000ceb300bc
:1067a8004260b70091028800dfe70700910280008d
:1067b800ff3ffc004544dd0042c0bf007f40600051
:1067c8000840700042e0b700910288004f0478004a
:1067d80000000600889fbe008a9fbe0080417800a6
:1067e8000244780032c0bf008084fb000a402000c9
:1067f8000b0020000383fb008180fb0002c0200007
:1068080002b1b90002024500e0824d004a09dd00ec
:1068180002014200e0814a004019de0002007800cf
:1068280032e0b7006331b90082804000ca08dd0059
:106838000a804000b8e70700f34f54000b0032000d
:10684800f44f5400120032008000eb00f24f540065
:10685800180032000900780032e0b7000100780023
:106868004f05be004f04be00000006004300de00d6
:10687800e10060000900780032e0b700010078000c
:106888004f05be004f04be0000000600f7ff3700aa
:106898004400de00e10060000900780032e0b70043
:1068a800010078004f05be004f04be00000006003e
:1068b800eeff37004200de00e100600009007800ca
:1068c80032e0b700010078004f05be004f04be005b
:1068d80000000600e5ff3700889fbe00290320005e
:1068e8009944780006402000070020000084fb003f
:1068f8008180fb0002c0200002c1b90002024300ef
:10690800e0824b004a09dd0002014200e0814a00b2
:106918004019de000200780032e0b70020042400ad
:10692800003b88006341b90082804000ca08dd004e
:1069380086804000010078008ce7070028042000ca
:10694800184478000884fb004544de00910280006a
:10695800ff3ffc0000ceb3004260b7009102880000
:1069680071e7070091028000ff3ffc004544dd000d
:1069780042c0bf007f4060000840700042e0b7009e
:10698800910288008004fd0032e0b7008004fd0019
:106998004f04be0000000600ee874700889fbe0037
:1069a8008a9fbe008c9fbe008e1f780080407800b2
:1069b80032c0bf000080fb00e0b79f000181fb00f0
:1069c80000c020000090b900800478000100200079
:1069d800c0b79f00d1b79f006310b900b0b79f0040
:1069e8000007eb006055b8000c4020000d002000a7
:1069f8004fb19700dfb197000201460083814e0036
:106a0800f2b79f0083bf9f00280320001844780036
:106a18000200450083804d004008de0032e0b700e8
:106a28000c8044003ce707000004fd0032e0b7009a
:106a38000004fd000038a300170032000e07e8002c
:106a480000402000010020000a0540008b85480016
:106a580080844400e30f57000f0032007fb1970095
:106a68008fb99700280320001844780002004500d9
:106a780083804d004008de0032e0b7000c804400ff
:106a880025e707000004fd0032e0b7000004fd0020
:106a98000038a300e9ff3a004fb19700dfb1970033
:106aa8000c0041008d8049004a71dd000201400060
:106ab800e08148004019de000200780032e0b700ab
:106ac800bfb197000e8041004a00dd000c04400071
:106ad8008004eb000a4020008984e8000884e8006c
:106ae800080078000ce707008a8f54000c00320079
:106af800e14f4000f8ff3a00890078004fe897001e
:106b080032e0b700010078004f0778004f06be005a
:106b18004f05be004f04be00ef00b10000000600a4
:106b28008000eb004fe8970032e0b70001007800e2
:106b38004f0778004f06be004f05be004f04be0049
:106b4800ef00b10000000600f5ff3700f0874700ae
:106b5800889fbe008a9fbe008c9fbe008e1f780053
:106b680080047800f0032000808f5400080036006d
:106b78003aa9a800f0ff2f004f0778004f06be0083
:106b88004f05be004f04be000f01b1000000060013
:106b980032c0bf000080fb00c0b79f004648de003f
:106ba8000080fb0002c020000280b90000077800c6
:106bb8006101b800a2b79f00b3b79f000006780034
:106bc8008006eb006055b800044020000500200056
:106bd8000203420083834a00d6b79f00e7b79f00ad
:106be8000601be0028032000184478000a0041006e
:106bf8008b8049004008de0032e0b7000400460000
:106c0800f4b79f0085bf9f00c3e607000004fd009e
:106c180032e0b7000004fd007fb297008fba9700fa
:106c28000038a300160032008d06e800004020005e
:106c3800010020000a0540008b8548000006460038
:106c4800e38f5600030032005fb19700efb1970061
:106c5800e4ff37000fe8970032e0b7003ac9a80010
:106c6800f0ff2f004f0778004f06be004f05be000b
:106c78004f04be000f01b10000000600c4ff37003a
:106c88004a68dd002fb39700bfb3970004014300a3
:106c980085814b0000014100e08149004019de0078
:106ca8000001fd0032e0b7000001fd00840047004c
:106cb80001004000e13f2000808040000a202000c1
:106cc800f903b200010478000100780092e6070099
:106cd8008880e9000a05e9000f003200890f50009a
:106ce800f8ff3a00080078008de607008000780079
:106cf8000fe8970032e0b700010078004f077800ee
:106d08004f06be004f05be004f04be000f01b10084
:106d1800000006009eff37003a09a8000fe8970018
:106d280032e0b700f0ff2f004f0778004f06be0093
:106d38004f05be004f04be000f01b1000000060061
:106d480093ff3700fa874700889fbe008a9fbe00de
:106d58008c9fbe008e1f7800c0ef9f0032c0bf001e
:106d68000080fb0090b79f004fe897000087fb006a
:106d780000c0200000f0b900800478006101b8006c
:106d8800e2af9f00f3af9f006370b900d0af9f00e0
:106d98008001eb00a3b79f006055b80004402000b5
:106da80005002000f4b79f0085bf9f006fa89700db
:106db800ffa89700040640008586480028032000a5
:106dc800184478000c0045008d804d004008de0016
:106dd80032e0b700ffb19700038044004ee6070099
:106de8000004fd0032e0b7000004fd000038a300f5
:106df80014003200afb097008100e800a1b79f00ef
:106e080002402000030020000a0541008b8549004c
:106e180082844400e38f5000e8ff3a002fe0970097
:106e280032e0b7003a69a8002fb097004f07780002
:106e38004f06be004f05be004f04be00af01b100b3
:106e480000000600afb097000106e800e30f560007
:106e58002d00320028032000184478000c80fb0025
:106e68007fb297008fba97006fa99700ffa9970084
:106e780004054100858549004a01dd0002014500fd
:106e8800e0814d004019de000001fd0032e0b7004e
:106e98000001fd00dfa99700030040004a00dd0063
:106ea800040040001ce607000004fd0032e0b700c3
:106eb8000004fd000048a30015003a000c06e80095
:106ec800e30f56000e0032002fb19700820f5600d4
:106ed800e0ff3a002fe0970032e0b7003a29a80017
:106ee800100020004f0778004f06be004f05be0077
:106ef8004f04be00af01b10000000600d1ff37000b
:106f08000006eb00f0ff37000006eb00d1ff37006a
:106f18004a60dd006102b800c4b79f00d5b79f0082
:106f28000a0042008b804a004008de0032e0b700c9
:106f3800dfaa9700050046004a00dd00b0b79f00b1
:106f4800ffb09700010440004fe8970092fe070049
:106f58000000e000010032003a49a8003ac9bf0029
:106f680080e79f003a09a90010002400003b880030
:106f7800880078000080eb00fce5070088007800b6
:106f8800f00f2000f5e507000885e800f00f200065
:106f980000f0b900800678001b0020008044eb0058
:106fa8000984fb0008804600e8fe07003a09ab00a8
:106fb800cf0032003a09a9008944e80000c4b300b0
:106fc80080cf5400d5003200f0032000808f550098
:106fd800f3ff340028042000184478000884fb00dc
:106fe8004544de0091028000ff3ffc0000ceb30064
:106ff8004260b70091028800cbe50700910280004b
:10700800ff3ffc004544dd0042c0bf007f406000f8
:107018000840700042e0b700910288008005eb004c
:1070280000c4b30080cf5400ddff3a000fe09700a2
:107038003ae9b7007fb197008fb997006faa970018
:10704800ffaa97000200420083804a004fb19700d0
:10705800dfb1970002004000838048004008de004e
:1070680032e0b700bfb197007fb297008485410036
:107078000b84e80008007800a7e507008044780042
:107088000885e80063804500a5e50700000478004e
:10709800e1cf44000f0032000980fb000080460069
:1070a800aafe0700800f540050003a000a04e800c6
:1070b8000a00780098e50700804478000a85e8000f
:1070c8000800780096e5070000047800e1cf440046
:1070d800f1ff3a00afb29700dfa8970001804200a5
:1070e8004a00dd007fb1970002044000bfb197005d
:1070f800028741007fb097008fb897006fa997006b
:10710800ffa9970000054100818549004a28dd0054
:1071180000004500e0804d004008de0032e0b70086
:10712800080078007ee507008006780008007800ef
:1071380079e50700004178000c00e00001003a0002
:107148008d06e800e38f5600020036003a29a800b1
:107158000244a1004fb29700dfb297000400450037
:1071680085804d004008de0032e0b7008284fb00d5
:107178008e0078000900780078e507008e00780016
:107188000d00780079e5070030002400003b8800f6
:1071980028042000184478000884fb004544de00d9
:1071a80091028000ff3ffc000cceb3000c40780039
:1071b8004260b700910288005be5070091028000f9
:1071c800ff3ffc004544dd0042c0bf007f40600037
:1071d8000840700042e0b700910288000e00780075
:1071e8004de50700808f54000b0032002fe0970018
:1071f80032e0b7003ae9a800700020004f07780095
:107208004f06be004f05be004f04be00af01b100df
:10721800000006000bff37000e00780040e507006d
:10722800808f5600f1ff3a00290320009944780026
:107238004fe197008280fb004a09dd00020145000a
:10724800e0814d004019de000200780032e0b7000e
:1072580020042400003b8800dfa9970083804000b9
:10726800ca08dd007fb297008480400001007800e2
:107278003ee5070028042000184478000884fb0035
:107288004544de0091028000ff3ffc000c4078007e
:107298004260b7009102880023e507009102800050
:1072a800ff3ffc004544dd0042c0bf007f40600056
:1072b8000840700042e0b700910288000900780099
:1072c80032e0b7002fe0970032e0b7003a09d50066
:1072d800610060004f0778004f06be004f05be00f2
:1072e8004f04be00af01b10000000600d5fe370014
:1072f8008a0078001de507008a00780008007800f9
:1073080016e507000a85e8008b05e8008944e800cf
:1073180000c4b30080cf54002bff3a00f0032000d4
:10732800808f55000200340009c4b30029ff3700dc
:107338008a0078000080eb000ce507008a007800de
:10734800f00f200005e507000a85e8008b05e80036
:1073580000042000808f5500f3ff32008a00780077
:107368000080eb0001e507008a007800f00f20009c
:10737800fae407000a85e8008b05e800000420000d
:10738800808f5500eaff3a00e7ff3700e68747009d
:10739800889fbe008a9fbe008c9fbe008e1f78000b
:1073a80032c0bf000087fb00004020000100200021
:1073b800f0b79f0081bf9f004008de0032e0b700b1
:1073c8008004eb006055b8000c4020000d00200040
:1073d80028032000184478007fb197008fb99700e0
:1073e8000a0041008b8049004008de0032e0b70007
:1073f80002004500c8e407000004fd0032e0b700c1
:107408000004fd000048a3000f003a008904e800ca
:107418000a0546008b854e00e38f5400ecff3a00c6
:107428000e00780032e0b7003a29a80010002000ca
:107438004f0778004f06be004f05be004f04be0040
:107448006f00b100000006008044eb006055b800f2
:107458000c4020000d00200028032000184478006c
:107468007fb297008fba97000a0042008b804a00cb
:107478004008de0032e0b70004004500a6e407003b
:107488000004fd0032e0b7000004fd000038a3004e
:1074980001003a008944e8000a0546008b854e0041
:1074a80005c02000850f5500e08f5d00eaff3a0017
:1074b8000904e0000f003200e1cf540081003200df
:1074c800e2cf5400890032000e00780032e0b700a5
:1074d8003ac9a800600020004f0778004f06be0098
:1074e8004f05be004f04be006f00b100000006004b
:1074f800d5ff37002c0320001c4678007fb097008a
:107508008fb89700400dde000b0020000a007800bd
