:020000040000fa
:080000000002040000000000f2
:020000040000fa
:10040000cf5721000e7b22000e0188000000000063
:100410000c000700a03d2000010020001100070093
:10042000000020000000e000020032000000020096
:1004300000000000501a0200000000000040da0036
:100440000000fe004440a900a02c20000000e000b5
:100450000300320000002000a00188004440a800f2
:100460000000060091018800800078000000eb0089
:1004700015003700e280400032a0b4009101ba00bc
:10048000e280400032a0b4009102ba00e280400055
:1004900032a0b4000002eb00472bde00f507b200eb
:1004a000602ce10004003a000059eb008301e900f0
:1004b000fdff3e00040037006128e100010032002a
:1004c0000082eb00040007001101ba000200e00006
:1004d000e8ff3a00000006003159ba008301e90044
:1004e0000c0032002159ba008301e90008003200f3
:1004f0000400e00003003a00e280400032a0b400b3
:10050000f5ff370011d9ba008301e900faff3a007c
:100510008100e800e180400032a0b4000000060045
:10052000020ab900001bb9000200b80081004200b5
:1005300081004300000006006022b800060220008f
:100540000000d0008180d2000482d2008582d200d7
:100550000000a0000202520083825a000300310012
:100560000202420083824a000000a1000603e90063
:10057000f3ff3a0000000600839f68000100e000de
:1005800002003d0060001000e08018000300e00061
:1005900002003d0060011100e0811900e6ff070044
:1005a0004f00e00002003b0060001000e0801800f7
:0405b0000000060041
:020000040000fa
:10000800fc030000fc030000fc030000fc030000ec
:10001800fc030000fc030000fc030000fc030000dc
:10002800fc030000fc030000fc030000fc030000cc
:10003800fc030000fc030000fc030000fc030000bc
:100048001c1b0000fc030000fc030000fc03000074
:10005800fc030000fc030000fc030000fc0300009c
:10006800a61b0000fc030000fc030000fc030000ca
:10007800fc030000fc030000fc030000fc0300007c
:10008800fc030000fc030000fc030000361b00001a
:10009800fc030000fc0300006e1b0000fc030000d2
:1000a800fc030000fc030000fc030000fc0300004c
:1000b800fc030000fc030000fc030000fc0300003c
:1000c800fc030000fc030000fc030000fc0300002c
:1000d800fc030000fc030000fc030000fc0300001c
:1000e800fc030000fc030000fc030000fc0300000c
:1000f800fc030000fc030000fc030000fc030000fc
:10010800fc030000fc030000fc030000fc030000eb
:10011800fc030000fc030000fc030000fc030000db
:10012800fc030000fc030000fc030000fc030000cb
:10013800fc030000fc030000fc030000fc030000bb
:10014800fc030000fc030000fc030000fc030000ab
:10015800fc030000fc030000fc030000fc0300009b
:10016800fc030000fc030000fc030000fc0300008b
:10017800fc030000fc030000fc030000fc0300007b
:10018800fc030000fc030000fc030000fc0300006b
:10019800fc030000fc030000fc030000fc0300005b
:1001a800fc030000fc030000fc030000fc0300004b
:1001b800fc030000fc030000fc030000fc0300003b
:1001c800fc030000fc030000fc030000fc0300002b
:1001d800fc030000fc030000fc030000fc0300001b
:1001e800fc030000fc030000fc030000fc0300000b
:0801f800fc030000fc03000001
:020000040000fa
:10020800fc030000fc030000fc030000fc030000ea
:10021800fc030000fc030000fc030000fc030000da
:10022800fc030000fc030000fc030000fc030000ca
:10023800fc030000fc030000fc030000fc030000ba
:100248001c1b0000fc030000fc030000fc03000072
:10025800fc030000fc030000fc030000fc0300009a
:10026800a61b0000fc030000fc030000fc030000c8
:10027800fc030000fc030000fc030000fc0300007a
:10028800fc030000fc030000fc030000361b000018
:10029800fc030000fc0300006e1b0000fc030000d0
:1002a800fc030000fc030000fc030000fc0300004a
:1002b800fc030000fc030000fc030000fc0300003a
:1002c800fc030000fc030000fc030000fc0300002a
:1002d800fc030000fc030000fc030000fc0300001a
:1002e800fc030000fc030000fc030000fc0300000a
:1002f800fc030000fc030000fc030000fc030000fa
:10030800fc030000fc030000fc030000fc030000e9
:10031800fc030000fc030000fc030000fc030000d9
:10032800fc030000fc030000fc030000fc030000c9
:10033800fc030000fc030000fc030000fc030000b9
:10034800fc030000fc030000fc030000fc030000a9
:10035800fc030000fc030000fc030000fc03000099
:10036800fc030000fc030000fc030000fc03000089
:10037800fc030000fc030000fc030000fc03000079
:10038800fc030000fc030000fc030000fc03000069
:10039800fc030000fc030000fc030000fc03000059
:1003a800fc030000fc030000fc030000fc03000049
:1003b800fc030000fc030000fc030000fc03000039
:1003c800fc030000fc030000fc030000fc03000029
:1003d800fc030000fc030000fc030000fc03000019
:1003e800fc030000fc030000fc030000fc03000009
:0803f800fc030000fc030000ff
:020000040000fa
:102000004d4c000054200000496e00007665000031
:102010007274000065720000732000002d20000023
:102020005369000074650000206300006f6e0000bb
:10203000747200006f6c00006c650000722000007c
:10204000560000000d000000446500006320000001
:102050003133000020320000303100003700000032
:10206000313200003a350000383a000032390000c1
:10207000000d0000456e0000746500007220000035
:102080002d680000202c0000202d000048200000ba
:102090006f720000202d00003f200000666f0000de
:1020a00072200000686500006c7000000d0d0000db
:1020b0000054000068650000206600006f6c00009e
:1020c0006c6f0000776900006e67000020630000fd
:1020d0006f6d00006d6100006e64000073200000f1
:1020e000617200006520000061630000636500000c
:1020f00070740000656400003a0d0000002d0000bf
:10210000682000002f2000002d480000202f000034
:10211000202d00003f2000003a200000486500000c
:102120006c7000000d0000002d41000053200000e5
:102130003a200000536800006f7700007320000011
:10214000616c00006c20000073650000747000007a
:102150006f6900006e74000020760000616c000062
:1021600075650000730d0000002d00004144000063
:10217000203a000020530000686f000077730000d1
:10218000206100006c6c000020640000617400009d
:10219000610d0000002d000041560000203a0000b3
:1021a00020530000686f000077730000206100007a
:1021b0006c6c0000205600006f6c00007461000021
:1021c00067650000730d0000002d00004141000014
:1021d000203a000020530000686f00007773000071
:1021e000206100006c6c000020630000757200002c
:1021f000726500006e740000730d0000002d000079
:1022000041500000203a000020530000686f000099
:1022100077730000206100006c6c000020700000eb
:102220006f77000065720000730d0000002d000044
:102230005553000078200000792000003a2000006b
:102240005570000064610000746500002073000098
:1022500065740000706f0000696e0000742000005b
:102260007820000077690000746800002076000084
:10227000616c000075650000207900000d00000011
:1022800009090000004300006f6d00006d6100004f
:102290006e64000020650000636800006f3a000073
:1022a000202d000055530000004900006e7600000c
:1022b000616c000069640000207300006574000018
:1022c000706f0000696e0000740d000000000000d7
:1022d00056610000205200004d53000000560000df
:1022e0000056000062200000524d00005300000024
:1022f00056630000205200004d53000000490000ca
:1023000061200000524d0000530000004100000019
:1023100049620000205200004d53000000490000b7
:1023200063200000524d0000530000005662000080
:102330006174000000560000657800007400000021
:10234000506f0000776500007220000061000000ff
:102350006b570000005000006f77000065720000ae
:1023600020620000005000006f77000065720000de
:102370002063000000000000689100006f910000e1
:1023800001000000719100006f9100000100000049
:10239000789100006f910000010000007f91000023
:1023a00086910000010000008891000086910000e5
:1023b000010000008f9100008691000001000000e4
:1023c000969100006f910000030000009b910000b7
:1023d0006f91000003000000a0910000a891000090
:1023e00002000000ab910000a89100000200000074
:1023f000b3910000a89100000200000056610000a7
:1024000020630000616c0000002000000056000006
:1024100062200000636100006c0000005663000051
:1024200020630000616c0000004900006120000092
:10243000636100006c00000049620000206300003e
:10244000616c00000049000063200000636100002f
:102450006c00000056620000617400002063000000
:10246000616c0000005600006578000074200000d8
:10247000636100006c000000435400002053000022
:10248000697a0000650000002f350000410000005f
:10249000fe9100000592000000000000079200007d
:1024a00005920000000000000e920000059200005e
:1024b00000000000159200000592000000000000de
:1024c0001c92000005920000000000002392000012
:1024d00005920000000000002a9200000592000012
:1024e0000000000033920000059200000000000090
:1024f0003c920000449200000000000030310000d7
:10250000323300003435000036370000383900001f
:102510004142000043440000454600004748000097
:10252000494a00004b4c00004d4e00004f50000047
:1025300051520000535400005556000057580000f7
:10254000595a000000000000320000002020000066
:10255000000d0000004700006f74000020630000c1
:102560006d6400002e0d000000000000466c0000ad
:102570006173000068200000777200006974000039
:102580006520000066610000696c00006564000061
:042590002100000026
:020000040000fa
:1025940021c3bf00c2cfb3000240600021e3b700f3
:1025a40001ceb300014078002063b7002043a800a7
:1025b4002143a8002063a9002223a9002343a800e3
:1025c40023c3bf000240600023e3b70025e3a90052
:1025d40060c0b30024e3b70028c3bf00014060001b
:1025e40028e3b70028e3a9002603a90026c3bf00f7
:1025f40091cfb3000140600026e3b7002e23ef0023
:102604003003a8003023a8003043a8003063a8009a
:102614003083a80030a3a80030c3a80030e3a8008a
:10262400bcc3bf00f1ccb30001406000bce3b70001
:10263400bcc3bf0002406000bce3b7000030200010
:10264400201e8800f0012000301e8800d0002000e9
:10265400f01d8800007c2000001e88008ba0a900cb
:102664009ba0a900bde3a8002183a90022c3bf0049
:10267400ecc0500001406000c041b30022e3b70049
:1026840032c3bf0081cfb300014060003040b300cb
:1026940032e3b70085a0a90095a0a90021e3a80012
:1026a400000006008f04b000889fbe008a9fbe0011
:1026b4008c9fbe008e1f78009748ec0080f79f0027
:1026c40097e8b700017c2200007d22009100780089
:1026d40010804000027e220012004000027f22008f
:1026e400120040004280de006102b90062478000af
:1026f400734780000402410085824900e4b79f00cb
:10270400f5b79f006447880075478800237c220042
:10271400227d22009301780012854100227e22004e
:1027240012054500227f22001205450042d5de0035
:102734006152b900424780005347800004024100bf
:1027440085824900c4b79f00d5b79f0044478800dd
:1027540055478800437c2200427d22009301780083
:1027640092844100427e220092844400427f2200ef
:1027740092844400c2ccde00614ab9002247800042
:10278400334780000402410085824900a4b79f00ba
:10279400b5b79f002447880035478800637c220032
:1027a400627d22009301780012844100627e22003f
:1027b40012044400627f22001204440042c4de007a
:1027c4006142b900024780001347800004024100bf
:1027d4008582490084b79f0095b79f00044788000d
:1027e40015478800837c2200827d220093017800b3
:1027f40092834100827e220092834300827f2200e2
:1028040092834300c2bbde00613ab900e246800015
:10281400f34680000402410085824900e4af9f0032
:10282400f5af9f00e4468800f5468800a37c2200ab
:10283400a27d22009301780012834100a27e22002f
:1028440012034300a27f22001203430042b3de00be
:102854006132b900c2468000d346800004024100c0
:1028640085824900c4af9f00d5af9f00c44688004d
:10287400d5468800c37c2200c27d220093017800e3
:1028840012814100c37e220013014100c37f220054
:10289400130141004291de00b2af9f00124688004e
:1028a400e37c2200e27d2200930178001281410042
:1028b400e37e220013014100e37f22001301410063
:1028c4004291de00a2af9f000246880085a0a900c5
:1028d40022aa8000020050007046880012aa8000dc
:1028e400020655006c46880002aa800082845400c7
:1028f40059468800f2a98000020454004846880022
:10290400e2a98000828653003d468800d2a9800057
:102914000203530096af9f0026468800cf80de0056
:10292400e2aa8000cf91de00fcf60700e00f500021
:10293400e08f580002003d00f03fb0000180b0007d
:10294400ca8dde004609dd004a05de000a05710075
:102954008aaf9f007a4688006160b900f2aa8000bd
:10296400cf91de00edf60700e00f5000e08f580035
:1029740002003d00f03fb0000180b000460add00d7
:102984004a00de0000007200ca88de00909f9f00ab
:10299400604688006148b90002ab8000cf91de0038
:1029a400def60700e00f5000e08f580002003d0003
:1029b400f03fb0000180b000c609dd004a00de002f
:1029c40000807100ca88de00000778005046880045
:1029d4006140b90012ab8000cf91de00cff6070052
:1029e400d24480006114b8000801be00cbf6070091
:1029f4000280220003002000def60700809f9f0073
:102a0400404688006168b90022ab8000cf91de00a7
:102a1400c2f607000801be00c0f6070002802200cb
:102a240003002000d3f60700f0979f00304688008b
:102a34009fa997006118b90032ab8000cf91de00e6
:102a4400b6f607000801be00b4f6070002802200b3
:102a540003002000c7f60700e0979f002046880087
:102a64008fa897006108b900a09f9f00b19f9f00a5
:102a74008f9997006119b900e2a79f00f3a79f00ff
:102a8400a6f60700a200200003002000b9f6070004
:102a9400a2498000b34980000000410081804900c0
:102aa400c0a79f00d1a79f00a0498800b149880012
:102ab4001f9a97006126b900ff9097006108b9003a
:102ac400a0a79f00b1a79f000001be000c00be009c
:102ad40092f60700a200200003002000a5f60700dc
:102ae40082498000934980000001410081814900ae
:102af40082498800934988006174b900ef91970076
:102b04006119b90082a79f0093a79f000800be0027
:102b140082f60700a20020000300200095f60700bb
:102b240062498000734980000001410081814900ad
:102b340062498800734988003faa97006120b90060
:102b440042ab8000cf91de0074f60700e00f500026
:102b5400e08f580002003d00f03fb0000180b0005b
:102b6400ca89de00460add004a01de000201720065
:102b7400a0468000b14680000201400083814800e5
:102b8400e29f9f00f39f9f00a2468800b3468800ff
:102b94002fa997006110b90052ab8000cf91de00dd
:102ba4005ef60700e00f5000e08f580002003d0081
:102bb400f03fb0000180b000ca89de00460add00a3
:102bc4004a01de00020172008046800091468000c6
:102bd4000201400083814800c29f9f00d39f9f0051
:102be4008246880093468800be08e20002003d0049
:102bf4000a00e00005003d00818920009140780032
:102c040080ccb30080cf50001500360082892000ac
:102c1400124178000204e00005003d0071088000c4
:102c2400d0bb2100808f500001003e000e21ec003b
:102c3400e0c7b300804f510005003e0071088000da
:102c4400702c2100808f5000010036000e21ed0011
:102c54009868ef0010c0b30076f5b70004003700a1
:102c64000140e80098e8b700a628ec007675ef006c
:102c7400bc08e20006003d001f9897000000e00039
:102c84000300350010c0b30075f5b700020037002b
:102c9400a428ec007575ef00ba08e20005003d00b9
:102ca4000e00e0000300350010c0b30074f5b70057
:102cb40002003700a228ec007475ef008fa897007b
:102cc400f14588001f999700e2458800de45880099
:102cd4002f999700bf9997000200be000ff60700d6
:102ce4002248800033488000000541008185490066
:102cf4002a4888003b4888000c01be000c00be0036
:102d040006f60700024880001348800000014100d5
:102d14008181490002488800134888000801be00e8
:102d24000800be00fdf50700e2478000f34780007d
:102d34000001410081814900e2478800f34788008f
:102d44006fa19700ffa197000200be00f3f50700f2
:102d5400c2478000d34780000001410081814900bf
:102d6400c2478800d34788002fa19700bfa19700ce
:102d74000200be00e9f50700a2478000b3478000c7
:102d84000001410081814900a2478800b3478800bf
:102d94000fa197009fa197000200be00dff5070076
:102da40082478000934780000001410081814900ef
:102db400824788009347880000c8b3008ff19700ca
:102dc40080cf510049003a009768ef006fb1970037
:102dd400ffb19700491add004710de0000007200c1
:102de400c718de0020aa8800ec28ef00ee28ef00c8
:102df4004fb19700dfb19700491add004710de009c
:102e040000007200c718de0010aa8800e828ef004e
:102e1400ea28ef002fb19700bfb19700491add00ef
:102e24004710de0000007200c718de0000aa880008
:102e3400e428ef00e628ef000fb197009fb1970058
:102e4400491add004710de0000007200c718de00da
:102e5400f0a98800e028ef00e228ef006fa99700ae
:102e6400ffa99700491add004710de000000720038
:102e7400c718de00e0a98800dc28ef00de28ef0098
:102e84004fa99700dfa99700491add004710de001b
:102e940000007200c718de00d0a98800d828ef000f
:102ea400da28ef006f999700ff999700491add001f
:102eb4004710de0000007200c718de0090aa8800e8
:102ec400d428ef00d628ef004f999700df99970098
:102ed400491add004710de0000007200c718de004a
:102ee400a0aa8800d028ef00d228ef008293200007
:102ef400124178000280fb0000004000a133210051
:102f04008fa9970003b07800a11321001f9a97009e
:102f140004b07800a1f320000eb07800a1d3200003
:102f24008f99970003b07800a1b320007f92970097
:102f340004b07800a1932000ef91970003b07800cb
:102f44000241e8000200780038e9b7006057210028
:102f540014c0b300904f120065003a007675ef007c
:102f6400304580006104b8000801be004fa09700fe
:102f7400dfa097007ff50700420620000300200031
:102f84007cf50700824880009348800000014100de
:102f94008181490082488800934888003429ef00e1
:102fa4003629ef000801be000a00be0061f50700e3
:102fb4002048880031488800acf507004249800069
:102fc4005349800000014100818149004249880041
:102fd400534988000429ef000629ef003245800098
:102fe40003002000c0478000d147800051f507004e
:102ff400c0478800d14788009cf50700e24880005c
:10300400f34880000001410081814900e2488800c2
:10301400f3488800f828ef00fa28ef00a008ec0035
:1030240000458800ff0f50002a0036004049800008
:1030340051498000e00f5000e08f580002003d002d
:103044007f004000e08048004b0add004500de00c0
:1030540000007200c588de0030aa88000200be00ad
:10306400e00f5100e08f590002003d007f00410055
:10307400e08049004b09dd004500de0000007100de
:10308400c588de0060aa88008048800091488000de
:10309400e00f5000e08f580002003d007f00400028
:1030a400e0804800cb09dd004500de0000807100af
:1030b400c588de00b0aa8800a028ef002829ef0008
:1030c4002a29ef001c29ef001e29ef001029ef0028
:1030d4001229ef00a628ef0038c9bf00794050003c
:1030e400d1ccb300814f5000010036003869ef00a5
:1030f4005057210014c0b300904f120060003a00f2
:103104007575ef00204580006104b8000801be0019
:10311400804980009149800016f50700420620008e
:103124000300200013f50700624880007348800004
:103134000001410081814900624888007348880089
:103144003029ef003229ef000801be00004880005a
:1031540011488000f7f407000048880011488800ef
:1031640042f50700224980003349800000014100f4
:103174008181490022498800334988000029ef00f1
:103184000229ef002245800003002000a0478000b0
:10319400b1478000e7f40700a0478800b1478800e2
:1031a40032f50700c2488000d34880000001410086
:1031b40081814900c2488800d3488800f428ef0080
:1031c400f628ef009e08ec00f0448800ff0f500042
:1031d4002a0036002049800031498000e00f500069
:1031e400e08f580002003d007f004000e08048006e
:1031f4004b0add004500de0000007200c588de00d9
:1032040040aa88000200be00e00f5100e08f590080
:1032140002003d007f004100e08049004b09dd00d1
:103224004500de0000007100c588de0070aa880039
:103234006048800071488000e00f5000e08f580023
:1032440002003d007f004000e0804800cb09dd0023
:103254004500de0000807100c588de00c0aa880039
:103264009e28ef002429ef002629ef001829ef00fb
:103274001a29ef000c29ef000e29ef00a428ef0013
:103284004057210014c0b300904f120060003a0070
:103294007475ef00104580006104b8000801be0099
:1032a4006049800071498000b2f4070042062000a2
:1032b40003002000aff40700424880005348800018
:1032c4000001410081814900424888005348880038
:1032d4002c29ef002e29ef000801be00e0478000f2
:1032e400f147800093f40700e0478800f147880025
:1032f400def4070002498000134980000001410008
:10330400818149000249880013498800fc28ef00a4
:10331400fe28ef0012458000030020008047800053
:103324009147800083f40700804788009147880014
:10333400cef40700a2488000b34880000001410099
:1033440081814900a2488800b3488800f028ef0032
:10335400f228ef009c08ec00e0448800ff0f5000c6
:103364002a0036000049800011498000e00f500017
:10337400e08f580002003d007f004000e0804800dc
:103384004b0add004500de0000007200c588de0047
:1033940050aa88000200be00e00f5100e08f5900df
:1033a40002003d007f004100e08049004b09dd0040
:1033b4004500de0000007100c588de0080aa880098
:1033c4004048800051488000e00f5000e08f5800d2
:1033d40002003d007f004000e0804800cb09dd0092
:1033e4004500de0000807100c588de00d0aa880098
:1033f4009c28ef002029ef002229ef001429ef0078
:103404001629ef000829ef000a29ef00a228ef008f
:103414004f0778004f06be004f05be004f04be00a4
:103424008f04b10000000600de02a900c602a80055
:10343400c622a800c642a800c662a800c682a80088
:10344400c6a2a800c6c2a800c6e2a800c702a90076
:10345400c722a900c742a900c762a900c782a90060
:10346400c7a2a900c7c2a900c7e2a900cb02a9004c
:10347400cb22a900cb42a900cb62a900cb82a90030
:10348400cba2a900cbc2a900cbe2a9002aa3ef00da
:1034940000f02f00601988000000060040a7a90072
:1034a400e1ff07001c28ef009668ef009568ef0025
:1034b4007468ef009868ef009768ef000c28ef003d
:1034c4000068ef000080200020aa880010aa88006d
:1034d40000aa8800f0a98800e0a98800d0a9880083
:1034e4004505070042f40700330607002f68ef0084
:1034f400680607002c08070025fc070094f4070061
:103504009ef4070010002000e04088000060fe00e8
:103514007448e20002003200370807007468ed00c6
:1035240070822000a1c0b30090cf100002003600ca
:10353400580607002768ef005280200012417800e7
:1035440004c8bf000014e1000f003200212e200047
:1035540091407800e1c060000104a200e2c2bf0013
:103564000004a10001407000e2e2b700020078000c
:1035740004e8b70060ab800052002000110009008d
:103584000200d800d0448800604080004800dd007c
:1035940050408800501688000080200011c0b300fd
:1035a40090cf100002003a0001f407000068ef0019
:1035b4002cc8bf00d5ff32000080fb0031c0b3002f
:1035c4008b060700602a2900470607002bc8bf00a6
:1035d4000080fb0031c0b30085060700602a290083
:1035e400410607002ac8bf000080fb0031c0b300b9
:1035f4007f060700602a29003b06070029c8bf0090
:103604000080fb0031c0b30079060700602a29005e
:103614003506070026c8bf000080fb0031c0b30098
:1036240073060700902a29002f0607002c68ef0074
:10363400b6ff37003600f800809fbe00829fbe00b0
:10364400849fbe00869fbe008500a90015fc07006c
:103654004f03be004f02be004f01be004f00be002c
:103664003600f900004006003600f800809fbe00d6
:10367400821f78008760a9001c08ec0002a62e00b7
:10368400110009000280d800e14088002408ec0001
:1036940020418800823e2000820f50000400360042
:1036a4002428ef002e68ef002f68ef002768ec0055
:1036b400110009008280d8008000fd000000e000b5
:1036c40001003a000568ec004f0178004f00be008d
:1036d4003600f900004006003600f800809fbe0066
:1036e400829fbe00849fbe00869fbe0087c0a90043
:1036f40032c2bf000018a300010032003222a90028
:1037040095c8bf009648b400b21180007f006000e5
:103714005187200002f07800ed4f510003003a0079
:103724007468ec00b02a2900ef0507009568ec00e6
:103734004f03be004f02be004f01be004f00be004b
:103744003600f90000400600809fbe00829fbe0044
:10375400849fbe00869fbe0008c2bf000068a3000d
:10376400030032000010800026e8b70008c2a90058
:103774002428ef002768ef0040108000f2c3b30054
:1037840082406000010078002de8b700a0c2b300b9
:1037940080cf5000210032000c003e00eccf5000de
:1037a4006400320005003e00e8cf50001b003200e8
:1037b400eacf5000b2023a001800370080c2b300ca
:1037c400eecf500013003a005a00370000c3b30094
:1037d40080cf50001100320007003e0064405000ca
:1037e40080cf50007901320000c0e80080cf500043
:1037f400a3023a007501370040c3b30080cf5000e4
:103804007201320000c0e80080cf50006f01320026
:103814006440500080cf500099023a0000108000ac
:103824000041780026e8b7003180200091407800fc
:10383400e8cf500003003200eccf50002a003a00d9
:1038440025003700f040800001418000c808dd00f9
:103854000080fd00804078000040eb000281fb0006
:10386400030020000003410081834900f6408800e2
:10387400074188000148ec0001e8b700e34f50001d
:1038840086023a000168ef000368ef004039de0069
:1038940003002000020078002fe8b7004832dd0062
:1038a400c83add004830de0000807200c838de000f
:1038b400f00fb20000024200544088000281fb0075
:1038c40002014100c05521000431780010c0b3004a
:1038d40000e8b700710237000080fb0060408800f8
:1038e4000368ef006d0237002fe8b700ea4f50007d
:1038f40004003e000368ef00004040002fe8b700da
:10390400660237000004e00064023d008080fb0092
:103914000100d100f043b20003e8b7000108a3009e
:1039240002003a002228ef005c0237002228ec0053
:103934005a0237000010800026e8b7000100370063
:103944000000000008c2bf000008a300fcff3a000a
:1039540003c8bf00e34f50007100320004003e0072
:10396400e14f50002c0032004c003e0008003700ac
:10397400e54f5000ac0032008a003900e64f500099
:10398400ca003200e74f50003b023a00ea00370019
:10399400f2822000124178008280fb00010078004e
:1039a4000000a20061006000004278008100d100a4
:1039b400635421000004e000020032000180400052
:1039c40008003700018040000a00370063542100da
:1039d4000280fb0008e2a9000404e00004003200b5
:1039e400e00fb200608079000080fb000300370024
:1039f400e00fb200608079004800de0010108800fb
:103a0400812020009140780000c8b30080c060008d
:103a1400eeff3a0025013700a33321001141800055
:103a24000100d1000108a30008003a000000400092
:103a3400608079000080fb00101088002fc8bf0050
:103a44000080ea00610160001100370000004000be
:103a5400608079004800de00f7ff3700a3332100bf
:103a64000100d10008e2a9000200e00004003200d5
:103a740000004000608079000080fb0003003700f4
:103a840000004000608079004800de0010108800cb
:103a94000842e200f1ff3500a4003700a31321001f
:103aa400114180000100d1000108a30008003a0080
:103ab40000004000608079000080fb001010880046
:103ac4002fc8bf000080ea006101600011003700c8
:103ad40000004000608079004800de00f7ff3700f6
:103ae400a31321000100d10008e2a9000200e000b4
:103af4000400320000004000608079000080fb0078
:103b04000300370000004000608079004800de00b8
:103b1400101088000842e200f1ff350083003700ee
:103b2400a3f32000114180000100d1000108a3008b
:103b340008003a0000004000608079000080fb002b
:103b4400101088002fc8bf000080ea0061016000e7
:103b54001100370000004000608079004800de005a
:103b6400f7ff3700a3f320000100d10008e2a90009
:103b74000200e00004003200000040006080790090
:103b84000080fb00030037000000400060807900e3
:103b94004800de00101088000842e200f1ff350002
:103ba40062003700a3d32000114180000100d1003e
:103bb4000108a30008003a0000004000608079007a
:103bc4000080fb00101088002fc8bf000080ea00ae
:103bd400610160001100370000004000608079003e
:103be4004800de00f7ff3700a3d320000100d10016
:103bf40008e2a9000200e0000400320000004000d6
:103c0400608079000080fb00030037000000400062
:103c1400608079004800de00101088000842e2004d
:103c2400f1ff350041003700a3b3200011418000ab
:103c34000100d1000108a30008003a000000400080
:103c4400608079000080fb00101088002fc8bf003e
:103c54000080ea00610160001100370000004000ac
:103c6400608079004800de00f7ff3700a3b320002e
:103c74000100d10008e2a9000200e00004003200c3
:103c840000004000608079000080fb0003003700e2
:103c940000004000608079004800de0010108800b9
:103ca4000842e200f1ff350020003700a393200012
:103cb400114180000100d1000108a30008003a006e
:103cc40000004000608079000080fb001010880034
:103cd4002fc8bf000080ea006101600011003700b6
:103ce40000004000608079004800de00f7ff3700e4
:103cf400a39320000100d10008e2a9000200e00023
:103d04000400320000004000608079000080fb0065
:103d14000300370000004000608079004800de00a6
:103d2400101088000842e200f1ff35008100e8002d
:103d34001141880029013700c35521001141800039
:103d44000100d1000108a30008003a00000040006f
:103d5400608079000080fb00101088002fc8bf002d
:103d64000080ea006101600011003700000040009b
:103d7400608079004800de00f7ff37000100d100c1
:103d8400c355210008e2a9000200e000040032004b
:103d940000004000608079000080fb0003003700d1
:103da40000004000608079004800de0010108800a8
:103db4000842e200f1ff35000100e80010418800ec
:103dc400f10f50002c0136002a013700001080004a
:103dd40026e8b700010037000000000008c2bf0059
:103de4000008a300fcff3a0003c8bf00e34f5000e3
:103df4007700320004003e00e14f500032003200f0
:103e040052003e0008003700e54f5000b200320077
:103e140090003900e64f5000d0003200e74f5000c8
:103e240015013a00f1003700f282200012417800b7
:103e34008280fb00010078000000a20061006000a5
:103e440000427800635421008100d1000004e000a6
:103e54000200320001804000080037000180400069
:103e64000a0037000280fb006354210008e2a90025
:103e74000404e00004003200e00fb2006080790026
:103e84000080fb0003003700e00fb200608079007f
:103e94004800de0010108800812020009140780046
:103ea40000c8b30080c06000eeff3a000240e800a2
:103eb4002fe8b700f54f5000ef00360001007800fe
:103ec4002fe8b700ec003700a33321001141800034
:103ed4000100d1000108a30008003a0000004000de
:103ee400608079000080fb00101088002fc8bf009c
:103ef4000080ea006101600011003700000040000a
:103f0400608079004800de00f7ff37000100d1002f
:103f1400a333210008e2a9000200e00004003200fb
:103f240000004000608079000080fb00030037003f
:103f340000004000608079004800de001010880016
:103f44000842e200f1ff3500a4003700a31321006a
:103f5400114180000100d1000108a30008003a00cb
:103f640000004000608079000080fb001010880091
:103f74002fc8bf000080ea00610160001100370013
:103f840000004000608079004800de00f7ff370041
:103f94000100d100a313210008e2a9000200e000ff
:103fa4000400320000004000608079000080fb00c3
:103fb4000300370000004000608079004800de0004
:103fc400101088000842e200f1ff3500830037003a
:103fd400a3f32000114180000100d1000108a300d7
:103fe40008003a0000004000608079000080fb0077
:103ff400101088002fc8bf000080ea006101600033
:104004001100370000004000608079004800de00a5
:10401400f7ff37000100d100a3f3200008e2a90054
:104024000200e000040032000000400060807900db
:104034000080fb000300370000004000608079002e
:104044004800de00101088000842e200f1ff35004d
:1040540062003700a3d32000114180000100d10089
:104064000108a30008003a000000400060807900c5
:104074000080fb00101088002fc8bf000080ea00f9
:104084006101600011003700000040006080790089
:104094004800de00f7ff37000100d100a3d3200061
:1040a40008e2a9000200e000040032000000400021
:1040b400608079000080fb000300370000004000ae
:1040c400608079004800de00101088000842e20099
:1040d400f1ff350041003700a3b3200011418000f7
:1040e4000100d1000108a30008003a0000004000cc
:1040f400608079000080fb00101088002fc8bf008a
:104104000080ea00610160001100370000004000f7
:10411400608079004800de00f7ff37000100d1001d
:10412400a3b3200008e2a9000200e000040032006a
:1041340000004000608079000080fb00030037002d
:1041440000004000608079004800de001010880004
:104154000842e200f1ff350020003700a39320005d
:10416400114180000100d1000108a30008003a00b9
:1041740000004000608079000080fb00101088007f
:104184002fc8bf000080ea00610160001100370001
:1041940000004000608079004800de00f7ff37002f
:1041a4000100d100a393200008e2a9000200e0006e
:1041b4000400320000004000608079000080fb00b1
:1041c4000300370000004000608079004800de00f2
:1041d400101088000842e200f1ff3500f01f2000b3
:1041e400808f50002400360022003700c355210080
:1041f400114180000100d1000108a30008003a0029
:1042040000004000608079000080fb0010108800ee
:104214002fc8bf000080ea00610160001100370070
:1042240000004000608079004800de00f7ff37009e
:104234000100d100c355210008e2a9000200e000fa
:104244000400320000004000608079000080fb0020
:104254000300370000004000608079004800de0061
:10426400101088000842e200f1ff3500f18f500081
:10427400010036002228ef000782a800070037005b
:104284002c48e20004003a0060c0b3002ce8b700f8
:10429400010078002be8b7002e68ef008600a90023
:1042a4004f03be004f02be004f01be004f00be00d0
:1042b40000400600881f7800280420001844780075
:1042c4000884fb004544de0091028000ff3ffc00af
:1042d40000ceb3004260b7009102880007f10700e6
:1042e40091028000ff3ffc004544dd0042c0bf0056
:1042f4007f4060000840700042e0b70091028800ef
:104304004f04780000000600889fbe008a9fbe000c
:10431400804178000244780032c0bf008084fb00f2
:104324000a4020000b0020000383fb008180fb0077
:1043340002c0200002b1b90002024500e0824d0033
:104344004a09dd0002014200e0814a004019de0012
:104354000200780032e0b7006331b9008280400087
:10436400ca08dd000a804000e0f00700f34f540063
:1043740008003200f44f5400090032008040eb0082
:10438400f24f540008003a0064006000c200de00ee
:104394000500370068006000c300de00020037003b
:1043a40070006000c400de000900780032e0b7004d
:1043b4000180fb004f05be004f04be000000060054
:1043c400889fbe002803200018447800064020007f
:1043d400070020008084fb008180fb0002c02000d5
:1043e40002c9b90002024300e0824b004a09dd0021
:1043f40002014200e0814a004019de000200780018
:1044040032e0b70020042400003b88006349b9006f
:1044140082804000ca08dd008680400001007800e8
:10442400c7f00700a3ff07000800780032e0b700d8
:104434004f04be0000000600889fbe008a1f78005b
:104444008044780032c0bf000085fb000004eb000c
:10445400030037000804e800e30f540006003200ac
:1044640032c1b3008840780009407800a6ff0700f5
:10447400e10f5000f7ff3200064020000700200043
:104484000981fb0000c020000090b9000002430035
:10449400e0824b004a40dd0000004200e0804a0018
:1044a4004008de0032e0b7006311b90002014400a5
:1044b4004a11dd00060441008004eb008984e80011
:1044c4000884e8000800780088f00700804078003d
:1044d40000402000808f540002003a008004eb006a
:1044e40002003700e1cf4000f4ff3a000a007800f0
:1044f40032e0b700090078004f0578004f04be0091
:1045040000000600889fbe008a9fbe000005780058
:10451400f0032000800f5500020036007ab5a80091
:1045240012003700c654de0032c0bf008085fb0095
:104534000004eb00030037000804e800e30f540014
:104544000700320032c1b300884078000940780087
:104554006dff0700e10f5000f7ff32000500370040
:104564000b00780032e0b7007ad5a8000080eb0099
:104574002500370004402000050020000981fb00cd
:1045840000c020000091b9004a43dd00020042004f
:10459400e0804a0006004000e08048004008de0059
:1045a40032e0b7000401410006014100e23fb000df
:1045b4000920200002047800020078004bf0070074
:1045c400800078000881e9008904e90005003200d0
:1045d4000a007800f003b200808f5000050032001a
:1045e400f4ff37007a15a8000b00780032e0b7001a
:1045f400deff3700080078003ef007008005fd006c
:1046040032e0b7008005fd004f05be004f04be0038
:1046140000000600f4874700889fbe008a9fbe0002
:104624008c9fbe008e1f780080f79f0032c0bf00b1
:104634000080fb0090b79f000007eb0003003700e9
:104644000e07e800e30f57000700320032c1b30041
:104654008e4078000ff097002bff0700e10f500009
:10466400f7ff3200050037002fe0970032e0b70073
:104674007a75a8000e007800d90037008e06e8008d
:10468400e38f560008003a008006eb00060037006e
:104694008d06e800e38f560001003a00800678009a
:1046a4008e8f5600bd00320042c1b3008d407800a9
:1046b4000ff0970014ff07000000e000f4ff320041
:1046c40002402000030020008ff097008184fb004b
:1046d40000c0200000c8b9006102b800e4b79f0020
:1046e400f5b79f004a68dd006102b800c4b79f00b7
:1046f400d5b79f006fb29700ffb297000200420047
:1047040083804a004fb29700dfb297000000420056
:1047140081804a004008de0032e0b7006348b900f7
:10472400b0b79f000d0040004a06dd0002044600b9
:104734000ff0970040ff07000000e0000100320086
:104744007a55a8007ad5bf0080e79f007a15a900a2
:1047540010002400003b8800880078000080eb00f3
:10476400f7ef070088007800f00f2000f0ef070053
:104774000884e800f00f200000c8b900a0b79f002b
:10478400190020008045eb000b85fb00afb09700bb
:104794000a8040005bff07007a15ab00020032007c
:1047a4007a15a9000700370088007800e4ef0700b5
:1047b400880078000a007800ddef07000884e8002c
:1047c4008904e8008b45e80000c4b30080cf55009d
:1047d4000e003a0008003700880078000080eb00e3
:1047e400d7ef070088007800f00f2000d0ef070013
:1047f4000884e8008904e800f0032000808f540056
:10480400f5ff34000bc4b30003003700f0032000ad
:10481400808f5400dcff3400a6fe07008004eb0008
:1048240000c4b30080cf5500d7ff3a000fe09700d3
:104834007af5b70002402000030020006fb2970011
:10484400ffb297000200420083804a004fb29700f3
:10485400dfb297000000420081804a004008de0079
:1048640032e0b700020546000a84e8000800780038
:104874009eef0700804478008885e80063004500c7
:104884000c0037000980fb00afb2970000804200a3
:104894001cff0700880f500045003a000b04e80095
:1048a4000b00780091ef0700804478008b85e800c6
:1048b400080078008fef070000047800e1cf44007f
:1048c400f0ff3a000040200001002000bfb1970033
:1048d4000e8141004a11dd0000044100000646003b
:1048e4006fb29700ffb297000005420081854a002d
:1048f4004a70dd0000004500e0804d004008de0005
:1049040032e0b700080078007aef070080047800ee
:104914000800780075ef0700004178000d00e00002
:1049240001003a008904e800e38f540002003600d5
:104934007a35a8000244a1004fb29700dfb2970075
:104944000a0042008b804a004008de0032e0b700d3
:104954000284fb008c0078000800780074ef0700e4
:104964008c0078000900780075ef070030002400ff
:10497400003b88004ffe07000c0078005bef070047
:10498400800f54000a003a000c00780059ef070029
:10499400808f54000b003200050037002fe0970091
:1049a40032e0b7007a35a800100020000c00370070
:1049b4002fe0970032e0b7007af5a80070002000dd
:1049c400070037008e4078000ff097007cfe070048
:1049d4002fe0970032e0b7007a15d500610060003f
:1049e4004f0778004f06be004f05be004f04be00bf
:1049f4004f01b10000000600889fbe008a1f7800a6
:104a040032c0bf000085fb000040200001002000f0
:104a14004008de0032e0b7000004eb00030037007a
:104a24000804e800e30f54000700320042c1b30059
:104a3400884078000040eb0033fe07000000e000ef
:104a4400f7ff3200050037000a00780032e0b700b3
:104a54007a35a800100020004e0037000044eb0017
:104a64008004eb0032c1b300894078000040eb00c1
:104a740025fe07000000e00001003a000844e800b9
:104a84008904e800e38f5400f6ff3a000804e000cc
:104a940012003a00884078000840780048fe070079
:104aa40008402000090020004048de0001002000ea
:104ab40032e0b70030002400003b88008800780012
:104ac4000000eb001eef070088007800300f200084
:104ad40017ef0700f7fd070026003700e14f5400e9
:104ae40024003200e24f540026003a0032c1b300e1
:104af400884078000040eb0003fe07000000e0005f
:104b040005003a0032c1b30080407800fefd070082
:104b14000000e0000f0032000004eb000100370049
:104b24000804e8008844780032c1b3008840780063
:104b34000040eb00f4fd0700e10f500002003a00d2
:104b4400e30f5400f6ff3a008940e800e3cf500039
:104b540001003a008040eb000040eb0018fe070023
:104b64000040eb0034fe07000000e00001003a00c2
:104b7400a8fe07000a00780032e0b7000000eb004e
:104b8400040037000a00780032e0b7007ad5a800a4
:104b9400600020004f0578004f04be0000000600ae
:104ba400e4874700889fbe008a9fbe008c9fbe009a
:104bb4008e1f78000006780081057800f00320003d
:104bc400808f5000030036007ab5a8005000200002
:104bd40073003700460cde0032c0bf000085fb00c6
:104be40030002400003b88008004eb000300370001
:104bf4008904e800e38f5400080032000847780075
:104c040032c1b3008940780008407800befd070037
:104c1400e10f5000f6ff3200050037000a0078006b
:104c240032e0b7007ad5a800600020005c003700ad
:104c3400044020000500200000c0200000c0b9008e
:104c440000014200e0814a004a48dd0000004100c2
:104c5400e08049004008de0032e0b7006340b9005c
:104c6400008044004a00dd0084064000a85721006b
:104c7400184478000b00780022fe07008c0f5000c7
:104c84000a003a00d0ab80006100600007003a00df
:104c94000005fd0032e0b7000005fd000004fd0042
:104ca4007af5b7000004fd003d00370008007800e5
:104cb4007af5b7000e407800dffd07008004780025
:104cc4000000e00005003a000a00780032e0b70076
:104cd4007a95a80040002000310037000084460087
:104ce400880078000c00780095ee0700fb03b20002
:104cf400880078000b0078008dee07006dfd07003a
:104d040000000000000000000800780079ee0700b1
:104d140080f79f000ff097008080fb000c00780064
:104d2400f00fb200808f500010003a0008007800a5
:104d34006eee070080f79f008ff097000180fb0064
:104d44008b0f500009003a000800e80069ee0700e4
:104d54004880de0080f79f000ff097008080fb0002
:104d64004860de00808f5000050032000a007800a1
:104d740032e0b7007af5a800700020000800370080
:104d8400e03f2000808f540002003a000e4078007b
:104d940020fe07000a00780032e0b7000000eb00b4
:104da4004f0778004f06be004f05be004f04be00fb
:104db4004f00b100000006000000280080118800a8
:104dc40060052000c01188003062a800a03eb00039
:104dd4009011880087c0a90032c2bf00f043b2001e
:104de40032e2b70097c0a8000000060040c7bf0029
:104df4004500de00e100600040a7a8000602a8000c
:104e040006c2bf000008a300fdff3a00c508dd008c
:104e140040c7bf000054a1000140700040e7b70044
:104e24000000060040c7bf004500de00e10060004e
:104e340040a7a8000622a80006c2bf000018a300cd
:104e4400fdff3a00c508dd0040c7bf000054a100c3
:104e54000140700040e7b7000000060040c7bf00f3
:104e64004500de00e100600040a7a8000642a8005b
:104e740006c2bf000028a300fdff3a00c508dd00fc
:104e840040c7bf000054a1000140700040e7b700d4
:104e940000000600100320002010880000102900e4
:104ea4003010880000032000501088008600a900fc
:104eb400acc0bf0081cfb300014060006040b300cc
:104ec400ace0b7009600a80000000600804078001f
:104ed40033c2bf000008a300fdff32000180fb00c5
:104ee400a011880000000600800178000001eb009a
:104ef4000600370033c2bf000008a300fdff3200e4
:104f04000180fb00a01188000201e8000280fb0080
:104f1400e0c079000104e000f6ff3a00000006005a
:104f2400889fbe008a9fbe008c9fbe008e1f7800a3
:104f34000004be008046eb000d4778000aa02c0058
:104f4400abb92300ac0020000a01be000800be007b
:104f540078ed07000001be00e00f5000e08f58001c
:104f6400020032001dc0b30002003700e1cf56003a
:104f74000c003a0000c3b3008040410033c2bf00bc
:104f84000008a300fdff32000180fb00a01188008f
:104f94000a00be0061ed07000004540081845c0037
:104fa4001ec0b300a2002000030020000a00be00bf
:104fb40060ed07000005be000c06e900e2ff3a00c0
:104fc4000e04e00005003a0033c2bf000008a3004d
:104fd400fdff320000032000a01188004f07780075
:104fe4004f06be004f05be004f04be000000060081
:104ff40000027800e5cf50000c003e00e3cf5000e3
:105004002800320005003e00e1cf50003f0032008e
:10501400e2cf500048003a0031003700e4cf50009e
:1050240011003200e5cf500043003a000271220023
:10503400110009000282d80000017800a3002000ba
:10504400110009000381d8000100780002c3b300f5
:105054008240400033c2bf000008a300fdff3200bd
:105064000180fb00a0118800823e2000110009008d
:105074000282d80000017800a3002000110009007a
:105084000381d8000100780002c3b30082404000cd
:1050940033c2bf000008a300fdff32000180fb0003
:1050a400a011880042062000110009000282d800e5
:1050b40000017800a3002000110009000381d8003a
:1050c4000100780002c3b3008240400033c2bf0035
:1050d4000008a300fdff32000180fb00a01188003e
:1050e400a2002000110009000282d800110009006a
:1050f4000280d8000143b00033c2bf000008a300ff
:10510400fdff32000180fb00a0118800a2002000f6
:10511400110009000282d8000100780002c3b30024
:105124008240400033c2bf000008a300fdff3200ec
:105134000180fb00a0118800000006000600fa00b0
:10514400881f7800800278000144780082c3400000
:10515400e5cf53000200360057c0b30011003700fa
:10516400e3cf53000b00320003003e00e2cf5300b4
:1051740049003a0005003700e4cf5300070032002d
:10518400e5cf530044003a00060037000043eb002b
:10519400320037000042eb001f0037000042eb00f2
:1051a4000c00370002712200110009008282d8002d
:1051b40000017800a3002000110009000381d80039
:1051c4000100780001c3b3008140400081ff9f00cb
:1051d40014c0b3008480fb00823e2000811f78004d
:1051e400110009008282d80000017800cf00780005
:1051f400a3002000811f7800110009000381d8005a
:1052040001007800cf0078000043b000e88050002f
:1052140080f07f000442e8008480fb004206200006
:10522400811f7800110009008282d80000017800f3
:10523400cf007800a3002000811f7800110009002e
:105244000381d80001007800cf0078000043b0004b
:10525400e880500080f07f000443e8000682fb00f1
:10526400a2002000110009008282d8008101780088
:10527400110009000280d8000143b0006802520006
:1052840001f27f000640e8000080fb000343b00009
:105294006800500003f07f000001eb0009003700b4
:1052a4000080fb0068005000e0c07f0033c2bf00f4
:1052b4000008a300fdff32000180fb00a01188005c
:1052c4000201e80002407800884f5100f4ff3900e1
:1052d40033c2bf000008a300fdff3200e00220003b
:1052e400a011880088407800090037000180fb0085
:1052f4006800500060c17f0033c2bf000008a300f3
:10530400fdff32000280fb00a01188008140e8000c
:1053140087cf5000f5ff39004f0478000080fa0071
:1053240000000600000278000000e00006003d00d6
:1053340033c2bf000008a300fdff3200d0022000ea
:10534400a01188000402ea00027122001100090081
:105354000202d80000017800a30020001100090017
:105364000301d8000100780002c3b300824040006a
:1053740033c2bf000008a300fdff32000180fb0020
:10538400a0118800823e2000110009000202d8000a
:1053940000017800a3002000110009000301d800d7
:1053a4000100780002c3b3008240400033c2bf0052
:1053b4000008a300fdff32000180fb00a01188005b
:1053c40042062000110009000202d8000001780002
:1053d400a3002000110009000301d8000100780097
:1053e40002c3b3008240400033c2bf000008a300e0
:1053f400fdff32000180fb00a0118800a200200004
:10540400110009000202d800110009000200d800ae
:105414000143b00033c2bf000008a300fdff320007
:105424000180fb00a0118800a200200011000900e7
:105434000202d8000100780002c3b3008240400099
:1054440033c2bf000008a300fdff32000180fb004f
:10545400a0118800000006000600fa00000278008f
:10546400814278000000e00006003d0033c2bf0026
:105474000008a300fdff3200d0022000a011880024
:105484000402ea0002712200110009000202d8009d
:1054940000017800a3002000110009000301d800d6
:1054a4000100780001c3b30081404000a1ff9f00c8
:1054b400823e2000110009000202d8000001780099
:1054c400110009000301d800010078000043b00076
:1054d400b0ff9f0042062000110009000202d8001c
:1054e40000017800110009000301d80001007800d0
:1054f4000043b000c0ff9f00110009000302d80060
:1055040001017800110009000300d8000143b00034
:10551400d1ff9f000243b000e2ff9f0050c0b300e0
:10552400854050008001eb00090037000080fb003b
:105534006600500060c17f0033c2bf000008a300b2
:10554400fdff32000280fb00a01188008301e80007
:105554000340780081cf5100f4ff390033c2bf000b
:105564000008a300fdff3200e0022000a011880023
:10557400090037000180fb006600500060c17f0015
:1055840033c2bf000008a300fdff32000280fb000d
:10559400a01188008140e800e4cf5000f5ff3600f8
:1055a4000080fa0000000600000029004efe0700fb
:1055b40022c0b30011c0b30040062000dffe070084
:1055c4002002290048fe07004002290046fe070089
:1055d4002002290044fe07000003290042fe0700c0
:1055e4002002290040fe0700900329003efe070028
:1055f4004027ef0000000600889fbe008a9fbe007f
:10560400528920001241780061892000914078007d
:105614008041eb0054872000d6c2b30007c2b30018
:10562400080037000140e8000204e00001003200f5
:105634000241e900ff4060008341e80087cf510048
:10564400090032008182fb0065407a00864f5000d9
:10565400f4ff3a000200780095e8b70001007800f2
:1056640096e8b700080037000200780095e8b70014
:105674000100780096e8b7008182fb0065407a005b
:10568400864f50006e013a000500e8007f0060007c
:1056940051872000e0c0780050c5b30080cf50008f
:1056a400020132000d003e006d40500080cf5000da
:1056b4001a00320005003e006940500080cf5000bf
:1056c4001600320000c0e8000900370020c5b3000e
:1056d40080cf50000f003a004401370080c6b30069
:1056e40080cf50000d00320004003e00674050009f
:1056f40080cf500007003a001a00370020c7b300db
:1057040080cf5000390132006340400080cf500008
:10571400e60032000045eb00430137009005290004
:10572400f1fd0700f0072900effd070040092900fb
:10573400edfd0700500b2900ebfd0700b00c29001c
:10574400e9fd0700500e2900e7fd0700f00f2900ce
:10575400e5fd070070112900e3fd07003ac0b3001e
:10576400310137000580e8007f0060005187200088
:10577400e0c0780060c5b30080cf50006c003200f8
:105784000b003e007240500080cf50003d003200bc
:105794000b00360000c5b30080cf5000a0003200db
:1057a4006340400080cf50001c013a0015003700d0
:1057b40040c6b30080cf50003200320007003e00e4
:1057c4006340500080cf5000790032000040e80070
:1057d40080cf500011013a004200370030c7b300b7
:1057e40080cf5000070032006340400080cf50005b
:1057f4004f0032006640500080cf500007013a004d
:10580400870037000005eb0088242900c9552100d2
:1058140021c0b3000a007800f5fd070000c2b30000
:10582400aafd070018007800affd07000014290046
:10583400adfd0700484190000204e000050032007d
:1058440051c0b30082c05000190078003bfe07002d
:105854000200370019007800b2fe0700180090001b
:10586400a1fd0700d0c0b30098fd07000a05e800b9
:10587400660444008984e800e90f5500e70032001b
:10588400e3ff3700c81b2900695421001800780081
:1058940095fd07000014290093fd0700c8409000ff
:1058a4000104e0000300320019007800eafe07005a
:1058b40002003700190078009afe070018009000d3
:1058c40089fd0700d0c0b30080fd070066044400d2
:1058d4008984e800e01f2900800f5400cf003200c3
:1058e400eaff37000004eb00615421000880fb004c
:1058f4000808a30004003a00e00fb20060807800ba
:105904004800de0003003700e00fb200608078003a
:10591400f00fb20083fe0700d0c0b3006bfd070098
:105924000804e800f60f5400bc003200eeff370014
:10593400e81b2900695421009800780060c5b30071
:10594400914f100014003a009140900075405000af
:1059540080cf50001000320078b8970062fd070035
:105964000014290060fd0700a84090000104e00035
:105974000300320019007800b7fe07000200370068
:105984001900780067fe07001800780056fd07002c
:10599400d0c0b3004dfd0700660444008984e800cc
:1059a40000202900800f54009c003200e2ff3700e1
:1059b400e81b2900695421009800780010c4b30042
:1059c400914f100010003a0078b8970046fd070088
:1059d4000014290044fd0700a84090000104e000e1
:1059e40003003200190078009bfe07000200370014
:1059f400190078004bfe0700180078003afd0700f4
:105a0400d0c0b30031fd0700660444008984e80077
:105a140000202900800f540080003200e6ff370088
:105a2400e81b29006954210018017800924078008d
:105a340060c5b30080cf500003003a00924090004c
:105a4400754050000100370070c5b30080cf50008e
:105a540010003a0078b8970023fd070000142900cd
:105a640021fd0700a84090000104e000030032007b
:105a74001900780078fe070002003700190078004a
:105a840028fe07001800780017fd0700d0c0b300f7
:105a94000efd0700660444008984e8000020290004
:105aa400800f54005d003200dfff37000580e800fe
:105ab4007f00600052872000e040790030c5b300c9
:105ac40080cf50000300320030c7b30080cf5000b5
:105ad40054003a00638042007f0060006040790017
:105ae4000080fb0001fd2f0081054000648242001c
:105af40057c0b30046c0b3008204780008c2b300a4
:105b0400090037006a59b9000080fb000200400018
:105b1400810540000643e8008743e8000402e800ea
:105b2400e9cf5300040032007f00620060c07c00b3
:105b3400884f5000f3ff3a000640e800008042001e
:105b44007f00600052872000604079000080fb00e5
:105b540001fd2f008104400006c2e80007c5e800eb
:105b640002037800060037006a49b9000880fb0088
:105b740002004000810440000442e8000a45e800b5
:105b8400048042007f00600060447b00ed4f5400bd
:105b9400f5ff3a0030142900d3fc070021c0b300fc
:105ba4000b00780012fd070000c2b300c7fc070019
:105bb40051c0b300090078000dfd070008407800cb
:105bc400c2fc0700e88f550005003e008b804500ad
:105bd400c05521008930780075ea070012003700ab
:105be40050152900c0fc07000f0037000580e800ad
:105bf4007f00600051872000e0c0780020c5b3001a
:105c040080cf50000300320020c7b30080cf500083
:105c140004003a000000fe00020037004ac0b3004e
:105c2400010037005ac0b30096c8bf008040450049
:105c34000a4078009568b5007fc0600096e8b70018
:0c5c44004f05be004f04be00000006002b
:020000040000fa
:1005b400889fbe000004eb00c95521008800780024
:1005c40019007800761107000004e00002003200f0
:1005d400602b2900441207000804e8008984e8001d
:1005e400e90f5400f5ff3a004f04be000000060076
:1005f400889fbe000004eb00c95521000800780064
:10060400c00f0700801c78000804e800e90f5400bc
:10061400faff3a00e0fc2f005c15b400e1fc200076
:10062400810f50000f003600c0932000e0aa88001c
:10063400f0aa880000ab8800f015200010ab8800f9
:1006440020ab880030ab88006037b00040ab880036
:1006540090a4200050ab8800c012200060ab88003a
:10066400d3ff07004f04be00000006000400fa0098
:10067400889fbe008a9fbe008c1f780090bf9f0099
:10068400a1bf9f006044b8000a0028000b002000ae
:100694000c0120000804450089844d000801be00b7
:1006a4000800be009dff07001fb99700afb997006f
:1006b400820f5000838f5800020036000a04540051
:1006c4008b845c008b05d1000a85d3000c06e900fd
:1006d400f0ff3a000800be004f0678004f05be0048
:1006e4004f04be000080fa00000006001080ba002b
:1006f400000006001000ba0000000600801f780009
:100704000500fc0050052000303b8800a00a2000b2
:10071400303b880061e7a8000000000000000000f2
:1007240061e7af00feff37004f00780000000600cd
:100734008088bb000000060080c8bb0000000600e3
:100744008008bb00000006008048bb0000000600d3
:1007540000c42900d0088800b1c0bf00f1c8b300ac
:10076400014060000044a000b1e0b7008760a90028
:100774009760a8001fe1a80000000600a0862100e1
:1007840090ab880080ab880070088800a8c0bf00c8
:1007940081cfb300014060005040b300a8e0b7002f
:1007a4008500a9009500a80013e1a8000000060038
:020000040000fa
:1007b4007815000002000000020000007e92000094
:1007c40000080000740d000000000000c0270000b5
:1007d4004000000000000000741500000400000048
:1007e400000000007a150000020000000000000074
:0407f4000000000001
:020000040000fa
:0807f8000040da000000fe00e1
:00000001FF
